:020000040800F2
:100000000050002095050008E5050008E5050008FA
:10001000E5050008E5050008E5050008000000000A
:10002000000000000000000000000000E5050008DE
:10003000E505000800000000E5050008E5050008EA
:10004000E5050008E5050008E5050008E5050008E8
:10005000E5050008E5050008E5050008E5050008D8
:10006000E5050008E5050008E5050008E5050008C8
:10007000E5050008E5050008E5050008E5050008B8
:10008000E5050008E5050008E5050008E5050008A8
:10009000E5050008E5050008E5050008E505000898
:1000A000E5050008E5050008E5050008E505000888
:1000B000E5050008E5050008E5050008E505000878
:1000C000E5050008E5050008E5050008E505000868
:1000D000E5050008E5050008E5050008E505000858
:1000E000E5050008E505000800000000E50500083A
:1000F000E5050008E5050008E5050008E505000838
:10010000E5050008E5050008E5050008E505000827
:10011000E5050008E5050008E5050008E505000817
:10012000E5050008E5050008E5050008E505000807
:1001300010B5054C237833B9044B13B10448AFF321
:1001400000800123237010BD00000020000000008B
:100150003006000808B5034B1BB103490348AFF351
:10016000008008BD000000000400002030060008E8
:1001700080B483B000AF0346FB710B46BB711346DE
:100180007B71BB79072B56D8FB79022B53D8FB79AF
:10019000022B37D0022B00F3A980002B02D0012BB9
:1001A00018D0A3E0544B1B68BA7992000F2101FAD2
:1001B00002F2D2431146504A0B4013604E4B1B686B
:1001C0007979BA79920001FA02F211464A4A0B4350
:1001D00013602FE0494B1B68BA7992000F2101FA96
:1001E00002F2D2431146454A0B401360434B1B6851
:1001F0007979BA79920001FA02F211463F4A0B432B
:10020000136017E03E4B1B68BA7992000F2101FA88
:1002100002F2D24311463A4A0B401360384B1B6836
:100220007979BA79920001FA02F21146344A0B4305
:10023000136000BF5AE0BB790F2B57D8FB79022B14
:1002400054D8BB79083BBB71FB79022B36D0022B0B
:100250004CDC002B02D0012B18D047E0294B1B6847
:10026000BA7992000F2101FA02F2D2431146254ACF
:100270000B401360234B1B687979BA79920001FA1D
:1002800002F211461F4A0B4313602FE01E4B1B68FE
:10029000BA7992000F2101FA02F2D24311461A4AAA
:1002A0000B401360184B1B687979BA79920001FAF8
:1002B00002F21146144A0B43136017E0134B1B68FC
:1002C000BA7992000F2101FA02F2D24311460F4A85
:1002D0000B4013600D4B1B687979BA79920001FAD3
:1002E00002F21146094A0B43136000BF00BF0C37EE
:1002F000BD4680BC704700BF00080140000C0140B3
:100300000010014004080140040C014004100140A9
:1003100080B483B000AF0346FB710B46BB7113463C
:100320007B71BB790F2B44D8FB79022B41D87B79A9
:10033000002B1ED0012B3CD1FB79022B12D0022BBB
:1003400034DC002B02D0012B06D02FE0BB79012238
:100350009A401A4B1A600BE0BB7901229A40184B65
:100360001A6005E0BB7901229A40164B1A6000BF63
:100370001CE0FB79022B12D0022B19DC002B02D0DF
:10038000012B06D014E0BB7901229A400E4B1A6073
:100390000BE0BB7901229A400C4B1A6005E0BB7957
:1003A00001229A400A4B1A6000BF01E000BF00E042
:1003B00000BF00BF0C37BD4680BC7047100801402D
:1003C000100C01401010014014080140140C0140B1
:1003D0001410014080B483B000AF03463A60FB7153
:1003E0000B46BB71BB790F2B30D8FB79022B2DD874
:1003F000FB79022B1ED0022B28DC002B02D0012B14
:100400000CD023E0144B1A68BB7922FA03F3DBB259
:1004100003F00103DAB23B681A7017E00F4B1A6859
:10042000BB7922FA03F3DBB203F00103DAB23B68D3
:100430001A700BE00A4B1A68BB7922FA03F3DBB29D
:1004400003F00103DAB23B681A7000BF00BF0C373B
:10045000BD4680BC704700BF08080140080C014041
:100460000810014080B400AF084B01221A60084B0D
:1004700000221A6000BF054B1B6803F00203002B2B
:10048000F9D000BF00BFBD4680BC704700100240DD
:100490000410024080B483B000AF03460A46FB71EB
:1004A0001346BB71FB79022B2DD8BB791F2B2AD8A1
:1004B000FB79022B1CD0022B25DC002B02D0012B58
:1004C0000BD020E0124B1B68BA79012101FA02F22D
:1004D00011460F4A0B43136015E00E4B1B68BA79A7
:1004E000012101FA02F211460A4A0B4313600AE0A5
:1004F000094B1B68BA79012101FA02F21146064A3A
:100500000B43136000BF00BF0C37BD4680BC704773
:10051000141002401C1002401810024080B582B036
:1005200000AFFFF79FFF02210220FFF7B3FF032177
:100530000220FFF7AFFF04210220FFF7ABFF0822E4
:1005400004210120FFF714FE03220D210220FFF7F2
:100550000FFE0023FB71FB1D1A4604210120FFF74B
:1005600039FFFB79002B0AD1012200210020FFF77F
:10057000CFFE00220D210220FFF7CAFEEBE700228A
:1005800000210020FFF7C4FE01220D210220FFF709
:10059000BFFEE0E70D488546AFF300800C480D49EB
:1005A0000D4A002302E0D458C4500433C4188C42CE
:1005B000F9D30A4A0A4C002301E013600432A24234
:1005C000FBD300F011F8FFF7A9FFFEE70050002071
:1005D000000000200000002050060008000000205D
:1005E0001C000020FEE7000070B500260C4D0D4CED
:1005F000641BA410A64209D100F01AF800260A4D87
:100600000A4C641BA410A64205D170BD55F8043BEA
:1006100098470136EEE755F8043B98470136F2E774
:100620004806000848060008480600084C0600086E
:10063000F8B500BFF8BC08BC9E467047F8B500BFCF
:08064000F8BC08BC9E4670479F
:040648005501000850
:04064C003101000870
:040000050800059555
:00000001FF
