:020000040800F2
:1000000000500020D90300087D0300088303000886
:10001000890300088F030008950300080000000012
:100020000000000000000000000000009B0300082A
:10003000A703000800000000B3030008BF03000886
:1000400021040008210400082104000821040008FC
:1000500021040008210400082104000821040008EC
:1000600021040008210400082104000821040008DC
:1000700021040008210400082104000821040008CC
:1000800021040008210400082104000821040008BC
:1000900021040008210400082104000821040008AC
:1000A000210400082104000821040008210400089C
:1000B000210400082104000821040008210400088C
:1000C000210400082104000821040008210400087C
:1000D000210400082104000821040008210400086C
:1000E0002104000821040008210400080000000089
:1000F0000000000000000000000000000000000000
:0C01000000000000000000005FF808F1A3
:10010C0010B5054C237833B9044B13B10448AFF345
:10011C0000800123237010BD0400002000000000AB
:10012C009004000808B5034B1BB103490348AFF317
:10013C00008008BD000000000800002090040008AA
:10014C0080B485B000AFF860B9601346FB71FB68F2
:10015C00BA681A60FB68FA791A71FB681B79072B6D
:10016C0009D8FB681B799A00FB681B68042101FA0B
:10017C0002F21A600AE0FB681B7903F007039A008D
:10018C00FB681B68042101FA02F25A60FB681846EE
:10019C001437BD4680BC704780B485B000AF786022
:1001AC007B681B689B68DAB27B681B791946012354
:1001BC008B40DBB21340FB73FB7B002B14BF012382
:1001CC000023DBB218461437BD4680BC704780B4A0
:1001DC0085B000AFF860B9601346FB71FB68BA6874
:1001EC001A60FB68FA791A71FB79072B09D8FB683E
:1001FC001B799A00FB681B68032101FA02F21A6052
:10020C000AE0FB681B7903F007039A00FB681B6884
:10021C00032101FA02F25A60FB6818461437BD46F6
:10022C0080BC704780B483B000AF78607B681B687B
:10023C00DA687B681B79194601238B40DB4319462E
:10024C007B681B680A40DA6000BF0C37BD4680BC77
:10025C00704780B483B000AF78607B681B68DA6845
:10026C007B681B79194601238B4019467B681B68F8
:10027C000A43DA6000BF0C37BD4680BC70470000F3
:10028C0080B483B000AF786039607B683A681A60DC
:10029C003B680D4A934206D10C4B9B690B4A43F0C9
:1002AC000803936109E03B68094A934205D1074B67
:1002BC009B69064A43F0100393617B6818460C3720
:1002CC00BD4680BC704700BF000C014000100240CE
:1002DC000010014080B483B000AF00237B6002E0CB
:1002EC007B6801337B607B6842F20F729342F7DDCF
:1002FC0000BF00BF0C37BD4680BC704780B588B0CE
:10030C0000AF07F1180318491846FFF7B9FF07F1BA
:10031C00140316491846FFF7B3FF07F10C03042228
:10032C0012491846FFF70CFF3B1D0D220E491846CB
:10033C00FFF74DFF07F10C031846FFF72DFF03469F
:10034C00FB77FB7F002B06D13B1D1846FFF781FF87
:10035C00FFF7C0FFEEE7FB7F012BEBD13B1D1846EF
:10036C00FFF760FFE6E700BF00100140000C014002
:10037C0080B400AFFEE780B400AFFEE780B400AFFE
:10038C00FEE780B400AFFEE780B400AFFEE780B4B8
:10039C0000AF00BFBD4680BC704780B400AF00BF4B
:1003AC00BD4680BC704780B400AF00BFBD4680BC6A
:1003BC00704780B500AF00F02FF800BF80BD80B44F
:1003CC0000AF00BFBD4680BC704700000C480D4913
:1003DC000D4A002302E0D458C4500433C4188C4294
:1003EC00F9D30A4A0A4C002301E013600432A242FA
:1003FC00FBD3FFF7E4FF00F021F8FFF77FFF704716
:10040C000000002004000020B004000804000020BC
:10041C0024000020FEE7000080B400AF054B1B78E1
:10042C001A46054B1B681344034A136000BFBD46B4
:10043C0080BC7047000000202000002070B5002612
:10044C000C4D0D4C641BA410A64209D100F01AF8F7
:10045C0000260A4D0A4C641BA410A64205D170BD9F
:10046C0055F8043B98470136EEE755F8043B98479E
:10047C000136F2E7A8040008A8040008A804000844
:10048C00AC040008F8B500BFF8BC08BC9E46704729
:0C049C00F8B500BFF8BC08BC9E467047D5
:0404A8003101000816
:0404AC000D01000836
:0404B0000100000047
:04000005080003D913
:00000001FF
