:020000040800F2
:100000000050002049020008ED010008F30100083B
:10001000F9010008FF0100080502000800000000C7
:100020000000000000000000000000000B020008BB
:100030001702000800000000230200082F02000839
:100040009102000891020008910200089102000844
:100050009102000891020008910200089102000834
:1000600091020008910200084D0100089102000869
:100070009102000891020008910200089102000814
:100080009102000891020008910200089102000804
:1000900091020008910200089102000891020008F4
:1000A00091020008910200089102000891020008E4
:1000B00091020008910200089102000891020008D4
:1000C00091020008910200089102000891020008C4
:1000D00091020008910200089102000891020008B4
:1000E000910200089102000891020008000000003F
:1000F0000000000000000000000000000000000000
:0C01000000000000000000005FF808F1A3
:10010C0010B5054C237833B9044B13B10448AFF345
:10011C0000800123237010BD0400002000000000AB
:10012C000003000808B5034B1BB103490348AFF3A8
:10013C00008008BD0000000008000020000300083B
:10014C0080B400AF0C4B5B6903F01003002B0ED096
:10015C00094B10225A61094BDB68084A83F00403EF
:10016C00D360064BDB68054A83F00803D36000BFFD
:10017C00BD4680BC704700BF000401400008014030
:10018C0080B400AF104B0D229A61104B4FF03332FC
:10019C001A600F4B4FF044321A600C4B0422DA6099
:1001AC000A4B0822DA600B4B0122DA600A4B102250
:1001BC001A60094B10225A60074B10229A60074BA9
:1001CC004FF480621A60FEE7001002400008014004
:1001DC00000C0140000001400004014000E100E07F
:1001EC0080B400AFFEE780B400AFFEE780B400AF90
:1001FC00FEE780B400AFFEE780B400AFFEE780B44A
:10020C0000AF00BFBD4680BC704780B400AF00BFDC
:10021C00BD4680BC704780B400AF00BFBD4680BCFB
:10022C00704780B500AF00F02FF800BF80BD80B4E0
:10023C0000AF00BFBD4680BC70470000FFF7F7FF62
:10024C000B480C490C4A002302E0D458C450043328
:10025C00C4188C42F9D3094A094C002301E01360FD
:10026C000432A242FBD300F021F8FFF789FF70475C
:10027C0000000020040000202003000804000020DF
:10028C0024000020FEE7000080B400AF054B1B7873
:10029C001A46054B1B681344034A136000BFBD4646
:1002AC0080BC7047000000202000002070B50026A4
:1002BC000C4D0D4C641BA410A64209D100F01AF889
:1002CC0000260A4D0A4C641BA410A64205D170BD31
:1002DC0055F8043B98470136EEE755F8043B984730
:1002EC000136F2E718030008180300081803000889
:1002FC001C030008F8B500BFF8BC08BC9E4670474C
:0C030C00F8B500BFF8BC08BC9E46704766
:0403180031010008A7
:04031C000D010008C7
:0403200001000000D8
:0400000508000249A4
:00000001FF
