:020000040800F2
:100000000050002001020008A5010008AB01000813
:10001000B1010008B7010008BD01000800000000A0
:10002000000000000000000000000000C301000804
:10003000CF01000800000000DB010008E701000814
:100040004902000849020008490200084902000864
:100050004902000849020008490200084902000854
:100060004902000849020008490200084902000844
:100070004902000849020008490200084902000834
:100080004902000849020008490200084902000824
:100090004902000849020008490200084902000814
:1000A0004902000849020008490200084902000804
:1000B00049020008490200084902000849020008F4
:1000C00049020008490200084902000849020008E4
:1000D00049020008490200084902000849020008D4
:1000E0004902000849020008490200080000000017
:1000F0000000000000000000000000000000000000
:0C01000000000000000000005FF808F1A3
:10010C0010B5054C237833B9044B13B10448AFF345
:10011C0000800123237010BD0400002000000000AB
:10012C00B802000808B5034B1BB103490348AFF3F1
:10013C00008008BD0000000008000020B802000884
:10014C0080B483B000AF114B18229A61104B4FF45E
:10015C0080221A600E4B4FF033325A600D4B4FF425
:10016C0040125A600A4B9B6803F010037B607B685B
:10017C00002B04D1064B4FF42062DA60F2E7044BFB
:10018C00DB68034A23F42063D360EBE700100240E2
:10019C00000C01400010014080B400AFFEE780B4B9
:1001AC0000AFFEE780B400AFFEE780B400AFFEE71F
:1001BC0080B400AFFEE780B400AF00BFBD4680BC8A
:1001CC00704780B400AF00BFBD4680BC704780B4A0
:1001DC0000AF00BFBD4680BC704780B500AF00F0DB
:1001EC002FF800BF80BD80B400AF00BFBD4680BCFF
:1001FC0070470000FFF7F7FF0B480C490C4A00232F
:10020C0002E0D458C4500433C4188C42F9D3094AC0
:10021C00094C002301E013600432A242FBD300F02E
:10022C0021F8FFF78DFF704700000020040000202C
:10023C00D80200080400002024000020FEE7000083
:10024C0080B400AF054B1B781A46054B1B68134452
:10025C00034A136000BFBD4680BC704700000020FD
:10026C002000002070B500260C4D0D4C641BA41012
:10027C00A64209D100F01AF800260A4D0A4C641B5C
:10028C00A410A64205D170BD55F8043B9847013621
:10029C00EEE755F8043B98470136F2E7D002000828
:1002AC00D0020008D0020008D4020008F8B500BF44
:1002BC00F8BC08BC9E467047F8B500BFF8BC08BC3B
:0402CC009E46704793
:0402D00031010008F0
:0402D4000D01000810
:0402D8000100000021
:0400000508000201EC
:00000001FF
