:020000040800F2
:1000000000500020CD07000871070008770700089E
:100010007D0700088307000889070008000000002A
:100020000000000000000000000000008F07000832
:100030009B07000800000000A7070008B30700089E
:10004000150800081508000815080008150800081C
:10005000150800081508000815080008150800080C
:1000600015080008150800081508000815080008FC
:1000700015080008150800081508000815080008EC
:1000800015080008150800081508000815080008DC
:1000900015080008150800081508000815080008CC
:1000A00015080008150800081508000815080008BC
:1000B00015080008150800081508000815080008AC
:1000C000150800081508000815080008150800089C
:1000D000150800081508000815080008150800088C
:1000E00015080008150800081508000800000000A1
:1000F0000000000000000000000000000000000000
:0C01000000000000000000005FF808F1A3
:10010C0010B5054C237833B9044B13B10448AFF345
:10011C0000800123237010BD24000020000000008B
:10012C008408000808B5034B1BB103490348AFF31F
:10013C00008008BD00000000280000208408000892
:10014C0080B588B000AFF860B9601346FB80FB68DF
:10015C00BA681A60FB68FA889A80FB681968FB68B1
:10016C009B88DAB207F11403184600F02DF807F15A
:10017C0014030821184600F04BF8FB68184620378A
:10018C00BD4680BD80B483B000AF78607B681B68CF
:10019C009B687A689288D34003F0010318460C37A9
:1001AC00BD4680BC7047000080B483B000AF78605F
:1001BC00044A7B681A607B6818460C37BD4680BCC5
:1001CC00704700BFB808000880B586B000AFF86073
:1001DC00B9601346FB71FB681846FFF7E5FF0B4A45
:1001EC00FB681A60FB68BA685A60FB68FA791A7285
:1001FC00FB685A6807F114031146184600F084F99D
:10020C00FB6818461837BD4680BD00BFA40800081F
:10021C0080B483B000AF78600B46FB707B681B7AB0
:10022C00072B23D97B681B7A083BDAB27B681A72DE
:10023C007B685B685A687B681B7A9B000F2101FA0C
:10024C0003F3DB4319467B685B680A405A607B68A2
:10025C005B685A68F9787B681B7A9B0001FA03F398
:10026C0019467B685B680A435A601CE07B685B68D4
:10027C001A687B681B7A9B000F2101FA03F3DB439E
:10028C0019467B685B680A401A607B685B681A6871
:10029C00F9787B681B7A9B0001FA03F319467B689B
:1002AC005B680A431A60012318460C37BD4680BCB4
:1002BC00704780B483B000AF78600B46FB70FB785E
:1002CC00002B0DD0012B14D17B681B7A1A4601230D
:1002DC0003FA02F27B685B681A6100BF012309E034
:1002EC007B681B7A1A46012303FA02F27B685B686F
:1002FC005A61002318460C37BD4680BC704780B449
:10030C0083B000AF78600B46FB707B685B689B68C2
:10031C007A68127AD340DBB203F00103FB7001233D
:10032C0018460C37BD4680BC704780B58CB000AF0A
:10033C00786039607B683A681A607B681B689968DA
:10034C007B681B689A7B07F124031846FFF73CFF78
:10035C0007F1240301211846FFF75AFF7B681B683D
:10036C0019687B681B681A7B07F118031846FFF79E
:10037C002BFF07F1180301211846FFF749FF7B6893
:10038C001B6859687B681B685A7B07F10C0318467D
:10039C00FFF71AFF07F10C0301211846FFF738FF8E
:1003AC00786800F005F87B6818463037BD4680BD8C
:1003BC0080B483B000AF78607B681B689B685A6917
:1003CC007B681B689B7B194601238B4019467B6815
:1003DC001B689B680A435A617B681B681B685A69D7
:1003EC007B681B681B7B194601238B4019467B6875
:1003FC001B681B680A435A617B681B685B685A69F7
:10040C007B681B685B7B194601238B4019467B6814
:10041C001B685B680A435A6100BF0C37BD4680BC41
:10042C00704780B483B000AF78607B681B689B68B2
:10043C001A697B681B689B7B194601238B40194604
:10044C007B681B689B680A431A617B681B681B6886
:10045C001A697B681B681B7B194601238B40194664
:10046C007B681B681B680A431A617B681B685B68A6
:10047C005A697B681B685B7B194601238B401946C4
:10048C007B681B685B680A435A6100BF0C37BD462A
:10049C0080BC704780B483B000AF78607B681B6809
:1004AC009B681A697B681B689B7B194601238B40F0
:1004BC0019467B681B689B680A431A617B681B683A
:1004CC001B685A697B681B681B7B194601238B4090
:1004DC0019467B681B681B680A435A617B681B685A
:1004EC005B681A697B681B685B7B194601238B4030
:1004FC0019467B681B685B680A431A6100BF0C379E
:10050C00BD4680BC7047000080B483B000AF7860FB
:10051C0039607B683A681A603B68124A934206D18C
:10052C00114B9B69104A43F00403936114E03B6840
:10053C000E4A934206D10C4B9B690B4A43F00803BD
:10054C00936109E03B680A4A934205D1064B9B69CB
:10055C00054A43F0100393617B6818460C37BD467F
:10056C0080BC70470008014000100240000C0140A4
:10057C000010014080B483B000AF7860044A7B68FF
:10058C001A607B6818460C37BD4680BC704700BFAC
:10059C00E808000880B584B000AFF860B9607A60F4
:1005AC00FB681846FFF7E6FF084AFB681A60FB6811
:1005BC00BA685A60FB687A689A60F86800F050F87C
:1005CC00FB6818461037BD4680BD00BFCC0800083C
:1005DC0080B582B000AF78607B685B681846FFF727
:1005EC0059FF7B689B681846FFF71BFF00BF083755
:1005FC00BD4680BD80B582B000AF78607B685B681B
:10060C001846FFF70EFF7B689B681846FFF742FF02
:10061C0000BF0837BD4680BD80B582B000AF7860A2
:10062C007B685B681846FFF7C3FE7B689B681846BF
:10063C00FFF7F7FE00BF0837BD4680BD80B582B01E
:10064C0000AF78607B685B681846FFF723FF7B6818
:10065C009B681846FFF7ACFE00BF0837BD4680BD4F
:10066C0080B582B000AF78607B685B681846FFF796
:10067C009FFE7B689B681846FFF79AFE00BF083701
:10068C00BD4680BD80B588B000AF07F118030422C9
:10069C001C491846FFF754FD07F1100305221949B0
:1006AC001846FFF74DFD3B1D174A18491846FFF732
:1006BC0071FF07F118031846FFF764FD0346002B82
:1006CC000CBF01230023DBB2002B04D03B1D1846CA
:1006DC00FFF77EFFEDE707F110031846FFF752FD19
:1006EC000346002B0CBF01230023DBB2002B04D0EC
:1006FC003B1D1846FFF77EFFDBE73B1D1846FFF757
:10070C00AFFFD6E7000C0140440000204000002061
:10071C0080B582B000AF786039607B68012B0CD15A
:10072C003B684FF6FF72934207D106490648FFF724
:10073C00FCFD06490648FFF7F8FD00BF0837BD462B
:10074C0080BD00BF000000204000002010000020F1
:10075C004400002080B500AF4FF6FF710120FFF779
:10076C00D7FF80BD80B400AFFEE780B400AFFEE7DA
:10077C0080B400AFFEE780B400AFFEE780B400AFFA
:10078C00FEE780B400AF00BFBD4680BC704780B4AC
:10079C0000AF00BFBD4680BC704780B400AF00BF47
:1007AC00BD4680BC704780B500AF00F02FF800BF8D
:1007BC0080BD80B400AF00BFBD4680BC7047000058
:1007CC00FFF7F7FF0B480C490C4A002302E0D45802
:1007DC00C4500433C4188C42F9D3094A094C002381
:1007EC0001E013600432A242FBD300F021F8FFF7C2
:1007FC0049FF704700000020240000200809000871
:10080C00240000204C000020FEE7000080B400AF64
:10081C00054B1B781A46054B1B681344034A13609F
:10082C0000BFBD4680BC704720000020480000205F
:10083C0070B500260C4D0D4C641BA410A64209D1BA
:10084C0000F01AF800260A4D0A4C641BA410A642AC
:10085C0005D170BD55F8043B98470136EEE755F8C5
:10086C00043B98470136F2E7FC080008FC08000836
:10087C00FC08000804090008F8B500BFF8BC08BC67
:10088C009E467047F8B500BFF8BC08BC9E46704742
:10089C0000000000000000001D020008BF0200085C
:1008AC000B03000800000000000000000000000026
:1008BC00000000000000000000000000000000002C
:1008CC00DD05000801060008250600084906000899
:1008DC006D06000800000000000000000000000091
:1008EC0000000000000000000000000000000000FC
:0808FC0031010008610700084A
:040904000D010008D9
:100908000010014000100140001001400D0E0F00C2
:1009180000080140000801400008014008090A00D9
:0409280001000000CA
:04000005080007CD1B
:00000001FF
