:020000040800F2
:10000000005000205D330008312600083726000824
:100010003D2600084326000849260008000000008D
:100020000000000000000000000000006116000851
:100030004F2600080000000051170008991700081B
:10004000A5330008A5330008A5330008A533000830
:10005000A5330008A5330008A5330008A533000820
:10006000A5330008A5330008A5330008A533000810
:10007000A5330008A5330008A5330008A533000800
:10008000A5330008A5330008A5330008A5330008F0
:10009000A5330008A5330008A5330008A5330008E0
:1000A000A5330008A5330008A5330008A5330008D0
:1000B000A5330008A5330008A5330008A5330008C0
:1000C000A5330008A5330008A5330008A5330008B0
:1000D000A5330008A5330008A5330008A5330008A0
:1000E000A5330008A5330008A53300080000000070
:1000F0000000000000000000000000000000000000
:0C01000000000000000000005FF808F1A3
:1001100010B5054C237833B9044B13B10448AFF341
:1001200000800123237010BD580000200000000053
:10013000A04D000808B5034B1BB103490348AFF3BA
:10014000008008BD000000005C000020A04D0008F9
:1001500070B54FF0FF0C4CF4E06C1CEA11541DBF5D
:100160001CEA135594EA0C0F95EA0C0F00F0DEF828
:100170002C4481EA030621EA4C5123EA4C5350EA0D
:10018000013518BF52EA033541F4801143F480135E
:1001900038D0A0FB02CE4FF00005E1FB02E506F0EF
:1001A0000042E0FB03E54FF00006E1FB03569CF044
:1001B000000F18BF4EF0010EA4F1FF04B6F5007F4A
:1001C00064F5407404D25FEA4E0E6D4146EB0606BC
:1001D00042EAC62141EA55514FEAC52040EA5E5045
:1001E0004FEACE2EB4F1FD0C88BFBCF5E06F1ED8EF
:1001F000BEF1004F08BF5FEA500E50F1000041EB26
:10020000045170BD06F0004646EA010140EA0200D2
:1002100081EA0301B4EB5C04C2BFD4EB0C0541EAF4
:10022000045170BD41F480114FF0000E013C00F309
:10023000AB8014F1360FDEBF002001F0004170BD2D
:10024000C4F10004203C35DA0C341BDC04F1140446
:10025000C4F1200500FA05F320FA04F001FA05F2D2
:1002600040EA020001F0004221F0004110EBD3709F
:1002700021FA04F642EB06015EEA430E08BF20EACB
:10028000D37070BDC4F10C04C4F1200500FA04F36E
:1002900020FA05F001FA04F240EA020001F0004100
:1002A00010EBD37041F100015EEA430E08BF20EA73
:1002B000D37070BDC4F1200500FA05F24EEA020EBB
:1002C00020FA04F301FA05F243EA020321FA04F0EA
:1002D00001F0004121FA04F220EA020000EBD370A1
:1002E0005EEA430E08BF20EAD37070BD94F0000FA1
:1002F0000FD101F00046400041EB010111F4801FD5
:1003000008BF013CF7D041EA060195F0000F18BF85
:10031000704703F00046520043EB030313F4801FC1
:1003200008BF013DF7D043EA0603704794EA0C0F7B
:100330000CEA135518BF95EA0C0F0CD050EA410691
:1003400018BF52EA4306D1D181EA030101F000410E
:100350004FF0000070BD50EA410606BF1046194636
:1003600052EA430619D094EA0C0F02D150EA013642
:1003700013D195EA0C0F05D152EA03361CBF104683
:1003800019460AD181EA030101F0004141F0FE4122
:1003900041F470014FF0000070BD41F0FE4141F4A6
:1003A000780170BD81F0004102E000BF83F000439E
:1003B00030B54FEA41044FEA430594EA050F08BF00
:1003C00090EA020F1FBF54EA000C55EA020C7FEAC4
:1003D000645C7FEA655C00F0E2804FEA5454D4EB41
:1003E0005555B8BF6D420CDD2C4480EA020281EA0B
:1003F000030382EA000083EA010180EA020281EA43
:100400000303362D88BF30BD11F0004F4FEA013194
:100410004FF4801C4CEA113102D0404261EB4101A3
:1004200013F0004F4FEA03334CEA133302D0524229
:1004300063EB430394EA050F00F0A780A4F10104E5
:10044000D5F1200E0DDB02FA0EFC22FA05F280181F
:1004500041F1000103FA0EF2801843FA05F3594105
:100460000EE0A5F120050EF1200E012A03FA0EFC84
:1004700028BF4CF0020C43FA05F3C01851EBE371AE
:1004800001F0004507D54FF0000EDCF1000C7EEBCB
:1004900000006EEB0101B1F5801F1BD3B1F5001F09
:1004A0000CD349085FEA30004FEA3C0C04F1010428
:1004B0004FEA445212F5800F80F09A80BCF1004F51
:1004C00008BF5FEA500C50F1000041EB045141EAD3
:1004D000050130BD5FEA4C0C404141EB0101013C9C
:1004E00028BFB1F5801FE9D291F0000F04BF01468B
:1004F0000020B1FA81F308BF2033A3F10B03B3F15D
:1005000020020CDA0C3208DD02F1140CC2F10C02EC
:1005100001FA0CF021FA02F10CE002F11402D8BF4A
:10052000C2F1200C01FA02F120FA0CFCDCBF41EA16
:100530000C019040E41AA2BF01EB0451294330BDE5
:100540006FEA04041F3C1CDA0C340EDC04F11404C2
:10055000C4F1200220FA04F001FA02F340EA030099
:1005600021FA04F345EA030130BDC4F10C04C4F1DF
:10057000200220FA02F001FA04F340EA03002946BF
:1005800030BD21FA04F0294630BD94F0000F83F409
:10059000801306BF81F480110134013D4EE77FEAEC
:1005A000645C18BF7FEA655C29D094EA050F08BF38
:1005B00090EA020F05D054EA000C04BF1946104619
:1005C00030BD91EA030F1EBF0021002030BD5FEA5D
:1005D000545C05D14000494128BF41F0004130BD85
:1005E00014F580043CBF01F5801130BD01F00045D9
:1005F00045F0FE4141F470014FF0000030BD7FEA4C
:10060000645C1ABF194610467FEA655C1CBF0B4646
:10061000024650EA013406BF52EA033591EA030F5D
:1006200041F4002130BD00BF90F0000F04BF002155
:10063000704730B54FF4806404F132044FF0000588
:100640004FF0000150E700BF90F0000F04BF002101
:10065000704730B54FF4806404F1320410F0004567
:1006600048BF40424FF000013EE700BF42004FEA62
:10067000E2014FEA31014FEA02701FBF12F07F43DF
:1006800093F07F4F81F06051704732F07F4208BF96
:10069000704793F07F4F04BF41F40021704730B59D
:1006A0004FF4607401F0004521F000411CE700BFE9
:1006B00050EA010208BF704730B54FF000050AE06C
:1006C00050EA010208BF704730B511F0004502D56D
:1006D000404261EB41014FF4806404F132045FEA6F
:1006E000915C3FF4D8AE4FF003025FEADC0C18BF18
:1006F00003325FEADC0C18BF033202EBDC02C2F10A
:10070000200300FA03FC20FA02F001FA03FE40EA9B
:100710000E0021FA02F11444BDE600BF4FEA410287
:1007200012F5001215D211D56FF47873B3EB625243
:1007300012D94FEAC12343F0004343EA505311F06A
:10074000004F23FA02F018BF404270474FF00000FC
:10075000704750EA013005D111F0004008BF6FF03A
:10076000004070474FF00000704700BF4A0011D2B0
:1007700012F5001211D20DD56FF47873B3EB6252FB
:100780000ED44FEAC12343F0004343EA505323FA07
:1007900002F070474FF00000704750EA013002D17C
:1007A0004FF0FF3070474FF0000070474FEA4102B2
:1007B000B2F1E04324BFB3F5001CDCF1FE5C0DD9BF
:1007C00001F0004C4FEAC0024CEA5070B2F1004F09
:1007D00040EB830008BF20F00100704711F0804F0C
:1007E00021D113F13872BCBF01F00040704741F4D1
:1007F00080114FEA5252C2F11802C2F1200C10FAD5
:100800000CF320FA02F018BF40F001004FEAC123B8
:100810004FEAD32303FA0CFC40EA0C0023FA02F35C
:100820004FEA4303CCE77FEA625307D150EA013332
:100830001EBF4FF0FE4040F44000704701F0004002
:1008400040F0FE4040F40000704700BF4FEA400215
:10085000B2F1FE4F0FD34FF09E03B3EB12620DD9EE
:100860004FEA002343F0004310F0004F23FA02F058
:1008700018BF404270474FF00000704712F1610FFF
:1008800001D1420205D110F0004008BF6FF00040D6
:1008900070474FF0000070472DE9B04384B000AFBF
:1008A000C7E90001D7E90001FFF702FF16A3D3E96A
:1008B0000023FFF74DFC02460B4610461946FFF792
:1008C0002DFF0346DA1798469146C7E900894FF095
:1008D00000024FF00003C7E9022307E000BFD7E999
:1008E0000223541C43F10005C7E90245D7E9020180
:1008F000D7E90023904271EB0303EFD300BF00BFA1
:100900001037BD46BDE8B0839A9999999999D93F16
:1009100080B500AF0A490B4802F07AFE00224FF47E
:100920008071084803F00FF844F210004FF0000106
:10093000FFF7B2FF0449034802F06AFE00BF80BD22
:1009400000000020000801401000002080B582B0A7
:1009500000AF0023FB714FF00E004FF00001FFF7D6
:100960009BFF4FF48071134802F0D6FF0346002B23
:1009700012D14FF01E004FF00001FFF78DFF4FF432
:1009800080710C4802F0C8FF0346002B02D00123FF
:10099000FB7101E00023FB7100BF4FF4807105483B
:1009A00002F0BAFF0346002BF7D1FB79184608374F
:1009B000BD4680BD0008014080B582B000AF002375
:1009C000BB713DE000BF4FF48071214802F0A4FFED
:1009D0000346002BF7D04FF00E004FF00001FFF759
:1009E0005BFF4FF480711A4802F096FF0346002B1C
:1009F0000ED1BB79C3F10703012202FA03F35BB204
:100A0000DB435AB297F9073013405BB2FB710BE03E
:100A1000BB79C3F10703012202FA03F35AB297F933
:100A2000073013435BB2FB7100BF4FF4807108487D
:100A300002F072FF0346002BF7D1BB790133BB7183
:100A4000BB79072BBED9FB7918460837BD4680BD58
:100A50000008014090B585B000AF7860FFF758FFFF
:100A6000FFF774FF0346002BF8D00023FB7309E067
:100A7000FB7B7A68D418FFF79FFF03462370FB7B4C
:100A80000133FB73FB7B042BF2D900BF00BF14378B
:100A9000BD4690BD00000000B0B584B000AF7860E6
:100AA000396007F108031846FFF7D4FF3B7A184670
:100AB000FFF7CAFD04460D467B7A1846FFF7C4FDD2
:100AC0001BA3D3E90023FFF743FB02460B46204656
:100AD0002946FFF76DFC02460B4610461946FFF704
:100AE00065FE02467B681A60BB7A1846FFF7ACFDCC
:100AF00004460D46FB7A1846FFF7A6FD0CA3D3E982
:100B00000023FFF725FB02460B4620462946FFF748
:100B10004FFC02460B4610461946FFF747FE0246B9
:100B20003B681A6000BF1037BD46B0BDAFF3008010
:100B30009A9999999999B93F90B589B000AF786021
:100B400039607B685E4A934234D15E4B9B695D4A53
:100B500043F4804343F00503936104230B229A403E
:100B6000594B5A60584B5B6804225200042101FA29
:100B700002F21146544A0B4353603B685B68534A88
:100B8000B2FBF3F31846FFF74FFD02460B46C7E9E9
:100B900002234B4CD7E90201FFF7E8FD0346A360AF
:100BA000474B0C22DA60464BDB68454A43F400535E
:100BB000D3607FE07B68464A93423AD1414B9B69C0
:100BC000404A43F0050393613E4BDB693D4A43F4E1
:100BD0000033D36104235B000B229A403A4B1A6026
:100BE000394B1A6804210B465B000B44042101FABF
:100BF00003F3354913430B603B685B68334AB2FB30
:100C0000F3F31846FFF710FD02460B46C7E904232D
:100C10002F4CD7E90401FFF7A9FD0346A3602C4B35
:100C20000C22DA602A4BDB68294A43F40053D36074
:100C300040E07B68274A93423AD1224B9B69214A84
:100C400043F0090393611F4BDB691E4A43F4802381
:100C5000D36104235B000B229A401F4B5A601E4B4A
:100C60005A6804210B465B000B44042101FA03F38C
:100C7000194913434B603B685B68144AB2FBF3F3BA
:100C80001846FFF7D1FC02460B46C7E90623114C74
:100C9000D7E90601FFF76AFD0346A3600D4B0C225E
:100CA000DA600C4BDB680B4A43F40053D36001E07D
:100CB000002300E0012318462437BD4690BD00BF45
:100CC00000380140001002400008014000127A0084
:100CD0000044004000480040000C014080B483B054
:100CE00000AF7860396002E03B68013B3B607B68A5
:100CF0001B681B6803F02003002B02D13B68002B0C
:100D0000F2D17B681B685B68DBB218460C37BD46C6
:100D100080BC704780B588B000AF786000237B61ED
:100D200001F0A2FE3E4B1B68002B04D100F0BAF884
:100D30003B4B01221A607B68002B0ED008231A4619
:100D40007B6813447B607B6803F00703002B04D0AF
:100D50007B6823F0070308337B607B68002B57D048
:100D60007B6842F2F772934252D82E4BBB612D4BF7
:100D70001B68FB6104E0FB69BB61FB691B68FB61ED
:100D8000FB695B687A689A4203D9FB691B68002B90
:100D9000F1D1FB69244A93423AD0BB691B6808220F
:100DA00013447B61FB691A68BB691A60FB695A6866
:100DB0007B68D31A08225200934222D9FA697B68D1
:100DC0001344FB60FB695A687B68D21AFB685A605F
:100DD000FB697A685A60FB685B68BB60114B3B61DA
:100DE00002E03B691B683B613B691B685B68BA6852
:100DF0009A42F6D83B691A68FB681A603B69FA6840
:100E00001A600A4B1A68FB695B68D31A074A1360B9
:100E100001F038FE7B6918462037BD4680BD00BF13
:100E200084280020742800207C280020280000202E
:100E300080B586B000AF78607B683B617B68002B33
:100E400027D008235B423A6913443B613B69FB604E
:100E500001F00AFEFB685B68BB60104B7B6102E03F
:100E60007B691B687B617B691B685B68BA689A4217
:100E7000F6D87B691A68FB681A607B69FA681A60A1
:100E8000FB685A68064B1B681344054A136001F05F
:100E9000F9FD00BF1837BD4680BD00BF7428002093
:100EA0002800002080B483B000AF0F4B23F007036D
:100EB0007B600E4A7B6813600C4B00225A600C4B1F
:100EC00042F2F8725A600A4B00221A607B683B605B
:100ED0003B6842F2F8725A603B68054A1A6000BFEC
:100EE0000C37BD4680BC70477C0000207428002071
:100EF0007C28002080B483B000AF78607B6803F169
:100F000008027B685A607B684FF0FF329A607B680A
:100F100003F108027B68DA607B6803F108027B68F2
:100F20001A617B6800221A6000BF0C37BD4680BC86
:100F3000704780B483B000AF78607B6800221A618C
:100F400000BF0C37BD4680BC704780B485B000AF91
:100F5000786039607B685B68FB603B68FA685A6060
:100F6000FB689A683B689A60FB689B683A685A60BD
:100F7000FB683A689A603B687A681A617B681B680C
:100F80005A1C7B681A6000BF1437BD4680BC70478E
:100F900080B485B000AF786039603B681B68BB6087
:100FA000BB68B3F1FF3F03D17B681B69FB600CE0BA
:100FB0007B680833FB6002E0FB685B68FB60FB68F2
:100FC0005B681B68BA689A42F6D2FB685A683B684D
:100FD0005A603B685B683A689A603B68FA689A6056
:100FE000FB683A685A603B687A681A617B681B68DC
:100FF0005A1C7B681A6000BF1437BD4680BC70471E
:1010000080B485B000AF78607B681B69FB607B684B
:101010005B687A6892689A607B689B687A685268B5
:101020005A60FB685B687A689A4203D17B689A6869
:10103000FB685A607B6800221A61FB681B685A1EB5
:10104000FB681A60FB681B6818461437BD4680BCF5
:101050007047000090B58DB002AF02F0A5F900F026
:1010600085FA012000F08FFC0346334A136000220A
:101070000121012000F01EFC0346304A13600022CB
:101080000121012000F016FC03462D4A136000F0F8
:101090004BFA00F01BFA00F097FF2A492A48FFF7A5
:1010A0004BFD2A4B07F118040FCB84E80F00284BA7
:1010B00007F108040FCB84E80F00264B9B69254AF3
:1010C00043F008039361234B9B6903F008037B60A3
:1010D0007B68204B9B691F4A43F0040393611D4BBF
:1010E0009B6903F004033B603B6807F11803194652
:1010F000194802F08DFA07F108031946174802F063
:1011000087FA002000F032F815484FF00001FFF791
:10111000C3FB094B1B68002B0CD000230193012358
:10112000009300234FF496720E490F4801F09BFA8A
:1011300001F062FCFEE700BF882800208C28002018
:10114000902800202C00002000380140C44D0008E9
:10115000D44D000800100240000C0140000801407E
:1011600080841E00B84D0008A912000880B582B026
:1011700000AF0346FB71FB79022B5AD0022B78DCBF
:10118000002B02D0012B34D073E001F040F9002194
:101190000F2001F081F801223849394801F012F995
:1011A00014210A2001F078F801223449354801F071
:1011B00009F92821192001F06FF801222F4932483E
:1011C00001F000F900F0C4FF0721002000F086FEC6
:1011D0002E484FF00001FFF75FFB0721002000F0D1
:1011E000B3FE2A484FF00001FFF756FB00F0E2FE85
:1011F0003FE001F00CF900210A2001F04DF8012236
:101200001E49234801F0DEF814210A2001F044F8B9
:1012100001221A491F4801F0D5F828210A2001F0BF
:101220003BF8012215491C4801F0CCF800F090FF72
:101230001FE001F0ECF80021002001F02DF8012260
:101240000E49164801F0BEF81421002001F024F8E0
:1012500001220A49124801F0B5F82821002001F0C6
:101260001BF8012205490F4801F0ACF800F070FFAF
:1012700000BF00BF0837BD4680BD00BF2000002072
:10128000E44D0008F04D0008FC4D000860E3160036
:10129000044E00080C4E0008144E00081C4E0008B6
:1012A000244E00082C4E000880B586B002AF78604E
:1012B0000023FB600120FFF759FF4FF47A711348B8
:1012C000FFF70CFD0346462B07D04FF47A710F4809
:1012D000FFF704FD0346662BEFD10220FFF746FF20
:1012E0004FF4FA6001F064FB07F10C030193022351
:1012F000009300234FF496720549064801F0B3F9B4
:101300004FF4FA6001F054FBD7E700BF2C00002037
:10131000344E00081913000880B588B002AF786019
:101320007B687B610023BB6032493348FFF7B4FB25
:10133000324B186800234FF0FF322E4900F03CFB7F
:101340002C4B1B681846FFF781FA07F10C030A22A1
:10135000194603F0A7FC00213C2000F09DFF01226C
:101360002749284801F02EF800213C2000F094FF86
:1013700007F10C0301222249184601F023F800F07E
:10138000E7FE1D4B1B681846FFF760FA07F10C03D8
:101390000A22194603F086FC14213C2000F07CFF51
:1013A00001221749174801F00DF814213C2000F0E4
:1013B00073FF07F10C0301221149184601F002F8EE
:1013C00000F0C6FE4FF47A7001F0F2FA07F108035C
:1013D00001930323009300234FF496720A490B48AC
:1013E00001F041F94FF4FA6001F0E2FA786901F096
:1013F00061FA99E7EC280020E82800208C280020DA
:1014000020000020444E0008484E00081114000837
:1014100080B584B000AF78607B68FB60234B1B68AD
:10142000002B3ED0214B186800234FF0FF3220499B
:1014300000F06CFB1E4B1B68172B19D901220221EF
:101440001C4802F080FA28213C2000F025FF0122F0
:1014500019491A4800F0B6FF28213C2000F01CFF73
:1014600001221549164800F0ADFF00F071FE18E0AA
:10147000002202210F4802F066FA28213C2000F0E9
:101480000BFF01220C490F4800F09CFF28213C2053
:1014900000F002FF012208490B4800F093FF00F022
:1014A00057FEF86801F006FAB8E700BF8C28002064
:1014B000F02800200008014020000020444E0008D1
:1014C000584E00085C4E0008644E000880B500AF1E
:1014D000124B134A1A60114B124A5A600F4B0022EA
:1014E0009A600E4B0022DA600C4B4FF480421A6176
:1014F0000A4B00225A61094B00229A61074B0022D5
:10150000DA61064B00221A62044802F035FA0346FB
:10151000002B01D000F065F800BF80BD94280020AA
:1015200000540040801A060080B483B000AF0E4B18
:101530009B690D4A43F0040393610B4B9B6903F0D5
:1015400004037B607B68084B9B69074A43F00803F0
:101550009361054B9B6903F008033B603B6800BF48
:101560000C37BD4680BC70470010024080B590B07B
:1015700000AF07F1180328220021184603F0D6FB1C
:101580003B1D00221A605A609A60DA601A610123DA
:10159000BB610123BB621023FB6200237B6307F165
:1015A0001803184602F060FF0346002B01D000F03C
:1015B00018F80F237B600023BB600023FB6000232F
:1015C0003B6100237B613B1D0021184603F0CEF9EF
:1015D0000346002B01D000F004F800BF4037BD46A1
:1015E00080BD80B400AF72B600BFFEE780B485B0A6
:1015F00000AFF860B9607A60FB68043BFB60FB6891
:101600004FF080721A60FB68043BFB60BB6823F0FC
:101610000102FB681A60FB68043BFB60084AFB6838
:101620001A60FB68143BFB607A68FB681A60FB6811
:10163000203BFB60FB6818461437BD4680BC7047F2
:101640004516000880B483B000AF4FF0BF0383F3AA
:101650001188BFF36F8FBFF34F8F7B6000BFFEE732
:10166000074B19680868B0E8F00F80F30988BFF3EA
:101670006F8F4FF0000080F311884EF00D0E704711
:10168000FC2C002000BF00BF06480068006880F303
:10169000088862B661B6BFF34F8FBFF36F8F00DF6C
:1016A00000BF00BF08ED00E080B500AF0B4B1B682A
:1016B0000A4A43F47F031360084B1B68074A43F050
:1016C0007F43136000F08AF8054B00221A60FFF791
:1016D000DBFFFFF7B7FF0023184680BD20ED00E0D9
:1016E0004800002080B483B000AF4FF0BF0383F305
:1016F0001188BFF36F8FBFF34F8F7B6000BF054B27
:101700001B680133034A136000BF0C37BD4680BC21
:10171000704700BF4800002080B483B000AF0A4B80
:101720001B68013B084A1360074B1B68002B05D15F
:1017300000237B607B6883F3118800BF00BF0C37F8
:10174000BD4680BC704700BF48000020000000007C
:10175000EFF30980BFF36F8F0D4B1A6820E9F00F8C
:1017600010602DE908404FF0BF0080F3118801F0B0
:10177000C3FA4FF0000080F31188BDE808401968F3
:101780000868B0E8F00F80F30988BFF36F8F7047E7
:10179000FC2C002000BF00BF80B582B000AF4FF02E
:1017A000BF0383F31188BFF36F8FBFF34F8F7B604D
:1017B00000BF01F0F5F90346002B03D0064B4FF0B4
:1017C00080521A6000233B603B6883F3118800BF9E
:1017D00000BF0837BD4680BD04ED00E080B400AF17
:1017E000054B41F63F721A60044B07221A6000BF96
:1017F000BD4680BC704700BF14E000E010E000E090
:1018000080B584B000AF786039607B68FB60FFF71B
:1018100069FFFB681A68FB68DB6BF968096C01FB00
:1018200003F31A44FB685A60FB6800229A63FB6862
:101830001A68FB689A60FB681A68FB68DB6B013BFF
:10184000F968096C01FB03F31A44FB68DA60FB6872
:10185000FF2283F84420FB68FF2283F845203B6881
:10186000002B14D1FB681B69002B1AD0FB681033C6
:10187000184601F09DFA0346002B12D00C4B4FF096
:1018800080521A60BFF34F8FBFF36F8F09E0FB6880
:1018900010331846FFF72EFBFB6824331846FFF77A
:1018A00029FBFFF739FF012318461037BD4680BDDD
:1018B00004ED00E080B58AB002AFF860B96013466D
:1018C000FB71BB68002B02D10023FB6104E0FB68C5
:1018D000BA6802FB03F3FB61FB6950331846FFF75C
:1018E00019FAB861BB69002B0BD0BB6950337B611F
:1018F000FA79BB69009313467A69B968F86800F011
:1019000005F8BB6918462037BD4680BD80B584B058
:1019100000AFF860B9607A60FB70BB68002B03D140
:10192000BB69BA691A6002E0BB697A681A60BB6970
:10193000FA68DA63BB69BA681A640121B869FFF70B
:101940005FFFBB69FA7883F84C2000BF1037BD46B3
:1019500080BD80B582B000AF78607B68002B0ED070
:101960007B6800225A607B6800221A607B68002234
:10197000DA60002300220021786800F01DF800BF23
:101980000837BD4680BD80B586B000AF0346FB7109
:1019900001237B6100233B61FB791A463969786931
:1019A000FFF788FFF860F868FFF7D3FFFB68184679
:1019B0001837BD4680BD000080B58AB000AFF86022
:1019C000B9607A603B6000237B62FB683B62FFF793
:1019D00089FE3B6A9A6B3B6ADB6B9A4202D33B6897
:1019E000022B29D13A68B968386A00F067F9F861C2
:1019F0003B6A5B6A002B10D03B6A2433184601F027
:101A0000D7F90346002B13D03F4B4FF080521A609A
:101A1000BFF34F8FBFF36F8F0AE0FB69002B07D036
:101A2000394B4FF080521A60BFF34F8FBFF36F8F67
:101A3000FFF772FE012363E07B68002B03D1FFF701
:101A40006BFE00235CE07B6A002B06D107F11403D8
:101A5000184601F001FA01237B62FFF75DFE01F0F9
:101A600003F8FFF73FFE3B6A93F844305BB2B3F1F3
:101A7000FF3F03D13B6A002283F844203B6A93F87E
:101A800045305BB2B3F1FF3F03D13B6A002283F8DC
:101A90004520FFF741FE3A1D07F114031146184691
:101AA00001F0F0F90346002B24D1386A00F0FEF96A
:101AB0000346002B18D03B6A10337A68114618464B
:101AC00001F060F9386A00F089F900F0DBFF0346A5
:101AD000002B7FF47CAF0C4B4FF080521A60BFF3A9
:101AE0004F8FBFF36F8F72E7386A00F077F900F01D
:101AF000C9FF6CE7386A00F071F900F0C3FF0023FA
:101B000018462837BD4680BD04ED00E080B58AB098
:101B100000AFF860B9607A603B6000237B62FB68CD
:101B20003B62FFF7DFFD3B6A9B6BFB61FB69002BB0
:101B300046D03B6ADB68BB61B968386A00F028F9B7
:101B40003B68002B21D1FB695A1E3B6A9A633B6AB2
:101B50001B68002B04D101F087FB02463B6A5A60E8
:101B60003B6A1B69002B27D03B6A1033184601F0F3
:101B70001FF90346002B1FD04F4B4FF080521A60C5
:101B8000BFF34F8FBFF36F8F16E03B6ABA69DA601D
:101B90003B6A5B6A002B0FD03B6A2433184601F086
:101BA00007F90346002B07D0434B4FF080521A60D1
:101BB000BFF34F8FBFF36F8FFFF7AEFD012377E0C9
:101BC0007B68002B03D1FFF7A7FD002370E07B6A41
:101BD000002B06D107F11003184601F03DF901234F
:101BE0007B62FFF799FD00F03FFFFFF77BFD3B6A4B
:101BF00093F844305BB2B3F1FF3F03D13B6A00225C
:101C000083F844203B6A93F845305BB2B3F1FF3F61
:101C100003D13B6A002283F84520FFF77DFD3A1D82
:101C200007F110031146184601F02CF90346002B6A
:101C300031D1386A00F024F90346002B25D03B6AE5
:101C40001B68002B08D1FFF74DFD3B6A5B68184607
:101C500001F030FAFFF760FD3B6A24337A681146E1
:101C6000184601F08FF8386A00F0B8F800F00AFF63
:101C70000346002B7FF455AF0F4B4FF080521A6094
:101C8000BFF34F8FBFF36F8F4BE7386A00F0A6F8B2
:101C900000F0F8FE45E7386A00F0A0F800F0F2FE28
:101CA000386A00F0EDF80346002B3FF43AAF00230A
:101CB00018462837BD4680BD04ED00E080B586B0EB
:101CC00000AFF860B9607A6000237B61FB689B6BB2
:101CD0003B61FB681B6C002B0DD1FB681B68002B64
:101CE0004DD1FB685B68184601F05AFA7861FB68D1
:101CF00000225A6043E07B68002B19D1FB6898688A
:101D0000FB681B6C1A46B96803F03CF8FB689A68DC
:101D1000FB681B6C1A44FB689A60FB689A68FB6856
:101D20005B689A422BD3FB681A68FB689A6026E0CE
:101D3000FB68D868FB681B6C1A46B96803F022F888
:101D4000FB68DA68FB681B6C5B421A44FB68DA606C
:101D5000FB68DA68FB681B689A4207D2FB685A681E
:101D6000FB681B6C5B421A44FB68DA607B68022BE1
:101D700005D13B69002B02D03B69013B3B613B69CC
:101D80005A1CFB689A637B6918461837BD4680BDAC
:101D900080B582B000AF786039607B681B6C002B27
:101DA00018D07B68DA687B681B6C1A447B68DA6041
:101DB0007B68DA687B685B689A4203D37B681A6841
:101DC0007B68DA607B68D9687B681B6C1A46386868
:101DD00002F0D8FF00BF0837BD4680BD80B584B093
:101DE00000AF7860FFF77EFC7B6893F84530FB73AB
:101DF00011E07B685B6A002B12D07B6824331846A5
:101E000000F0D6FF0346002B01D001F07FF8FB7BEA
:101E1000013BDBB2FB7397F90F30002BE9DC00E0EC
:101E200000BF7B68FF2283F84520FFF775FCFFF7B2
:101E300059FC7B6893F84430BB7311E07B681B69E5
:101E4000002B12D07B681033184600F0B1FF034618
:101E5000002B01D001F05AF8BB7B013BDBB2BB7316
:101E600097F90E30002BE9DC00E000BF7B68FF2211
:101E700083F84420FFF750FC00BF1037BD4680BDFB
:101E800080B584B000AF7860FFF72CFC7B689B6B5B
:101E9000002B02D10123FB6001E00023FB60FFF770
:101EA0003BFCFB6818461037BD4680BD80B584B04A
:101EB00000AF7860FFF716FC7B689A6B7B68DB6B82
:101EC0009A4202D10123FB6001E00023FB60FFF78F
:101ED00023FCFB6818461037BD4680BD80B582B034
:101EE00000AF03460A46FB711346BB712622002150
:101EF000782000F00FFB00220021782000F00AFB80
:101F0000FB791A460021782000F004FB0022002112
:101F1000782000F0FFFABB791A460021782000F003
:101F2000F9FA00220021782000F0F4FAFF220021C3
:101F3000782000F0EFFA2F220021782000F0EAFA52
:101F400000BF0837BD4680BD80B582B000AF0346F4
:101F50000A46FB711346BB7127220021782000F04E
:101F6000D9FA00220021782000F0D4FAFB791A4631
:101F70000021782000F0CEFA00220021782000F025
:101F8000C9FABB791A460021782000F0C3FA002272
:101F90000021782000F0BEFAFF220021782000F016
:101FA000B9FA2F220021782000F0B4FA00BF0837D8
:101FB000BD4680BD80B500AF2E220021782000F004
:101FC000A9FA00BF80BD000080B582B000AF00F06C
:101FD00027FA44F62063012278215B4801F00EFFC6
:101FE0000346002B01D00023A9E040F6C4137B6018
:101FF00002E07B68013B7B607B68002BF9D1AE225D
:102000000021782000F086FA20220021782000F0BC
:1020100081FA10220021782000F07CFAB022002101
:10202000782000F077FAC8220021782000F072FAB8
:1020300000220021782000F06DFA10220021782083
:1020400000F068FA40220021782000F063FA812233
:102050000021782000F05EFAFF220021782000F0B5
:1020600059FAA1220021782000F054FAA62200217A
:10207000782000F04FFAA8220021782000F04AFAD8
:102080003F220021782000F045FAA4220021782088
:1020900000F040FAD3220021782000F03BFA002221
:1020A0000021782000F036FAD5220021782000F0B7
:1020B00031FAF0220021782000F02CFAD9220021F8
:1020C000782000F027FA22220021782000F022FA5E
:1020D000DA220021782000F01DFA12220021782057
:1020E00000F018FADB220021782000F013FA2022F9
:1020F0000021782000F00EFA8D220021782000F0D7
:1021000009FA14220021782000F004FAAF220021FD
:10211000782000F0FFF92E220021782000F0FAF953
:10212000002000F043F800F013F8084B00221A805A
:10213000064B00225A80054B01225A710123184692
:102140000837BD4680BD00BF94280020F42C002035
:1021500080B582B000AF0023FB711DE0FB79503BDE
:10216000DBB21A460021782000F0D4F900220021C9
:10217000782000F0CFF910220021782000F0CAF971
:10218000FB79DB01084A1A4480234021782000F0C3
:102190005BF9FB790133FB71FB79072BDED900BFBB
:1021A00000BF0837BD4680BDF428002080B582B04E
:1021B00000AF0346FB71FB79002B01D1002300E047
:1021C000FF234FF480621946034802F0AFFD00BFC1
:1021D0000837BD4680BD00BFF428002080B483B01E
:1021E00000AF0346FB800B46BB801346FB70FB88A9
:1021F0007F2B48D8BB883F2B45D8254B1B79002B1C
:1022000006D0FB78002B0CBF01230023DBB2FB7050
:10221000FB78012B1AD1FA88BB88DB0898B20346F9
:10222000DB0113441B4AD35C5AB2BB8803F007039B
:10223000012101FA03F35BB2134359B2FA88034652
:10224000DB011344C9B2134AD1541DE0FA88BB889C
:10225000DB0898B20346DB0113440E4AD35C5AB242
:10226000BB8803F00703012101FA03F35BB2DB43F0
:102270005BB2134059B2FA880346DB011344C9B27A
:10228000044AD15400E000BF0C37BD4680BC704703
:10229000F42C0020F428002080B483B000AF034663
:1022A0000A46FB801346BB80054AFB881380044A1C
:1022B000BB88538000BF0C37BD4680BC704700BF51
:1022C000F42C002080B586B000AF03463960FB7166
:1022D0001346BB713A4B1B881A463B681B78134464
:1022E0007F2B07DC364B5B881A463B685B781344D0
:1022F0003F2B01DD00235EE000237B614BE03B6868
:102300005A68FB79203B3968497801FB03F3194689
:102310007B690B445B0013441B88FB6000233B611B
:1023200030E0FA683B6902FA03F303F40043002B40
:1023300010D0234B1A883B699BB2134498B2204BB0
:102340005A887B699BB213449BB2BA791946FFF74E
:1023500045FF14E01A4B1A883B699BB2134498B2AC
:10236000174B5A887B699BB2134499B2BB79002BF7
:102370000CBF01230023DBB21A46FFF72FFF3B6996
:1023800001333B613B681B781A463B699342C8D3D3
:102390007B6901337B613B685B781A467B699342BA
:1023A000ADD3074B1A883B681B789BB213449AB293
:1023B000034B1A80FB7918461837BD4680BD00BF15
:1023C000F42C002080B584B000AFF860B9601346EB
:1023D000FB7112E0FB681B78FA79B9681846FFF7C1
:1023E00071FF03461A46FB681B789A4202D0FB68CD
:1023F0001B7808E0FB680133FB60FB681B78002B4F
:10240000E8D1FB681B7818461037BD4680BD80B503
:1024100000AF0020FFF7CAFEFFF79AFE00BF80BDA5
:1024200080B483B000AF074B7B6002E07B68013B68
:102430007B607B68002BF9D100BF00BF0C37BD4625
:1024400080BC704790D0030090B5C7B002AF04467F
:10245000084607F58871A1F588710A60194607F5E5
:102460008873A3F2091322461A7007F58873A3F53F
:10247000857302461A7007F58873A3F586730A46BA
:102480001A8007F58873A3F5827307F58872A2F5A1
:10249000857212781A70002387F80F3115E097F8CB
:1024A0000F3107F58872A2F5887212681A4497F8FE
:1024B0000F310133117807F58872A2F58272D15479
:1024C00097F80F31013387F80F3197F80F319BB22E
:1024D00007F58872A2F5867212889A42DFD807F54E
:1024E0008873A3F209131B7899B207F58873A3F5D3
:1024F00086731B8801339BB207F10C020A200090FF
:10250000034801F07DFB00BF07F58A77BD4690BD0B
:102510009428002080B586B002AF0346FB710B46BD
:10252000BB7113467B71BB793B737B797B73FB7902
:1025300099B207F10C020A2300930223034801F029
:102540005FFB00BF1037BD4680BD00BF9428002050
:1025500080B485B000AF154B9B69144A43F001036A
:102560009361124B9B6903F00103BB60BB680F4B87
:10257000DB690E4A43F08053D3610C4BDB6903F0F7
:1025800080537B607B680A4B5B68FB60FB6823F0D1
:10259000E063FB60FB6843F00073FB60044AFB6888
:1025A000536000BF1437BD4680BC70470010024026
:1025B0000000014080B588B000AF786007F11003DB
:1025C00000221A605A609A60DA607B681B68154ABC
:1025D000934223D1144B9B69134A43F00803936140
:1025E000114B9B6903F00803FB60FB68C0233B6150
:1025F00012237B610323FB6107F1100319460B488B
:1026000001F006F8084BDB69074A43F40013D36175
:10261000054BDB6903F40013BB60BB6800BF2037C8
:10262000BD4680BD0054004000100240000C014037
:1026300080B400AFFEE780B400AFFEE780B400AF27
:10264000FEE780B400AFFEE780B400AFFEE780B4E1
:1026500000AF00BFBD4680BC704780B400AF00BF74
:10266000BD4680BC704780B58CB004AFF860B960DF
:102670003B601346FB80FB889B001846FEF74AFB35
:1026800078617B69002B0ED05C20FEF743FBF8617C
:10269000FB69002B03D0FB697A691A6305E078694E
:1026A000FEF7C6FB01E00023FB61FB69002B13D0A2
:1026B000FA8800230393FB690293FB6A0193BB6AC8
:1026C00000933B68B968F86800F00EF8F86900F00C
:1026D00083F80123BB6102E04FF0FF33BB61BB69AC
:1026E00018462037BD4680BD80B586B000AFF86083
:1026F000B9607A603B60BB6A186B7B689B001A46C6
:10270000A52102F013FBBB6A1A6B7B6803F18043BF
:10271000013B9B0013443B613B6923F007033B6192
:1027200000237B6112E0BA687B6913441978BA6AA6
:102730007B69134434330A461A70BA687B691344C0
:102740001B78002B06D07B6901337B617B690F2BE3
:10275000E9D900E000BFBB6A002283F843203B6A4E
:10276000052B01D905233B62BB6A3A6ADA62BB6A70
:102770003A6ADA64BB6A00221A65BB6A04331846F7
:10278000FEF7D7FBBB6A18331846FEF7D2FBBB6ACD
:10279000BA6A1A613B6AC3F10602BB6A9A61BB6AF4
:1027A000BA6A5A62BB6A00225A65BB6A002283F881
:1027B00058203A68F9683869FEF718FF0246BB6A84
:1027C0001A607B6A002B02D07B6ABA6A1A6000BF6B
:1027D0001837BD4680BD000080B582B000AF78607C
:1027E000FEF780FF2C4B1B6801332B4A13602B4BE9
:1027F0001B68002B09D1294A7B681360264B1B6894
:10280000012B10D100F0A6FB0DE0254B1B68002B1F
:1028100009D1224B1B68DA6A7B68DB6A9A4202D8CC
:102820001E4A7B6813601F4B1B6801331D4A1360EF
:102830001C4B1A687B685A647B68DB6A01229A40E9
:10284000194B1B681343184A13607B68DA6A1346F6
:102850009B0013449B00154A1A447B6804331946B5
:102860001046FEF772FBFEF757FF0D4B1B68002B5F
:102870000ED00A4B1B68DA6A7B68DB6A9A4207D281
:102880000B4B4FF080521A60BFF34F8FBFF36F8F27
:1028900000BF0837BD4680BDE82D0020FC2C00207D
:1028A000F42D0020042E0020F02D0020002D00200B
:1028B00004ED00E080B584B000AF7860FEF712FF51
:1028C0007B68002B02D1314B1B6800E07B68FB600A
:1028D000FB6804331846FEF793FB0346002B15D123
:1028E000FB68DA6A2A4913469B0013449B000B4499
:1028F0001B68002B0AD1FB68DB6A012202FA03F392
:10290000DA43244B1B681340224A1360FB689B6A1E
:10291000002B04D0FB6818331846FEF771FB1E4BE2
:102920001B6801331C4A1360184B1B68FA689A42F3
:102930000BD1FB68043319461848FEF706FB184B09
:102940001B680133164A136009E0164B1B68013BF4
:10295000144A1360F86800F079FB00F087FBFEF77B
:10296000DBFE114B1B68002B0CD0084B1B68FA6870
:102970009A4207D10D4B4FF080521A60BFF34F8F30
:10298000BFF36F8F00BF1037BD4680BDFC2C002009
:10299000002D0020F02D0020042E0020BC2D002052
:1029A000D02D0020E82D0020F42D002004ED00E0C3
:1029B00080B584B000AF78600023FB607B68002B9B
:1029C00008D000F051F80021786800F061FC00F0B8
:1029D00059F8F860FB68002B07D1064B4FF0805286
:1029E0001A60BFF34F8FBFF36F8F00BF1037BD4624
:1029F00080BD00BF04ED00E080B584B002AF144B91
:102A000001930023009300234FF49672114912485A
:102A1000FFF729FE78607B68012B15D14FF0BF03CB
:102A200083F31188BFF36F8FBFF34F8F3B6000BFFD
:102A30000A4B4FF0FF321A60094B01221A60094B12
:102A400000221A60FEF730FE00BF0837BD4680BD89
:102A50000C2E0020684E0008252F0008082E0020AC
:102A6000F42D0020EC2D002080B400AF044B1B6837
:102A70000133034A136000BFBD4680BC704700BFEE
:102A8000102E002080B584B000AF0023FB6000232F
:102A9000BB60FEF727FE394B1B68013B374A1360CA
:102AA000364B1B68002B61D1354B1B68002B5DD06A
:102AB0002EE0344BDB68DB68FB60FB68183318469C
:102AC000FEF79EFAFB6804331846FEF799FAFB6896
:102AD000DB6A01229A402C4B1B6813432A4A13607D
:102AE000FB68DA6A13469B0013449B00274A1A448A
:102AF000FB68043319461046FEF727FAFB68DA6ACA
:102B0000234B1B68DB6A9A4202D3224B01221A60D4
:102B10001C4B1B68002BCCD1FB68002B01D000F0B4
:102B2000A5FA1D4B1B687B607B68002B10D000F062
:102B300037F80346002B02D0164B01221A607B683F
:102B4000013B7B607B68002BF1D1134B00221A60A4
:102B5000104B1B68002B09D00123BB600F4B4FF0BB
:102B600080521A60BFF34F8FBFF36F8FFEF7D4FD13
:102B7000BB6818461037BD4680BD00BF102E002030
:102B8000E82D0020A82D0020F02D0020002D002091
:102B9000FC2C0020FC2D0020F82D002004ED00E08E
:102BA00080B586B000AF00237B61484B1B68002BCB
:102BB0007CD1474B1B6801333B61454A3B6913603D
:102BC0003B69002B10D1434B1B68FB60424B1B68D9
:102BD000404A1360404AFB681360404B1B68013356
:102BE0003E4A136000F042FA3D4B1B683A699A4234
:102BF0004DD3384B1B681B68002B01D1012300E02B
:102C00000023002B04D0364B4FF0FF321A603EE019
:102C1000304B1B68DB68DB68BB60BB685B687B6054
:102C20003A697B689A4203D22D4A7B6813602EE092
:102C3000BB6804331846FEF7E3F9BB689B6A002BB8
:102C400004D0BB6818331846FEF7DAF9BB68DB6AB4
:102C500001229A40234B1B681343224A1360BB682E
:102C6000DA6A13469B0013449B001F4A1A44BB6850
:102C7000043319461046FEF768F9BB68DA6A1B4B45
:102C80001B68DB6A9A42B4D301237B61B1E7174B1F
:102C90001B68DA6A144913469B0013449B000B44DB
:102CA0001B68012B07D901237B6104E0104B1B68D3
:102CB00001330F4A13600F4B1B68002B01D0012317
:102CC0007B617B6918461837BD4680BD102E0020F9
:102CD000EC2D0020A02D0020A42D0020002E00208F
:102CE000082E0020F02D0020002D0020FC2C0020BC
:102CF000F82D0020FC2D002080B485B000AF1C4BC7
:102D00001B68002B03D01B4B01221A602AE0194BD1
:102D100000221A60184B1B687B607B68B3FA83F350
:102D2000FB70FB78C3F11F03FB60FA6813469B003E
:102D300013449B00114A1344BB60BB685B685A682C
:102D4000BB685A60BB685A68BB6808339A4204D1B2
:102D5000BB685B685A68BB685A60BB685B68DB68C5
:102D6000074A136000BF1437BD4680BC704700BFE0
:102D7000102E0020FC2D0020F02D0020002D002022
:102D8000FC2C002080B582B000AF78603960074B22
:102D90001B68183319467868FEF7FAF8012138687D
:102DA00000F076FA00BF0837BD4680BDFC2C00203D
:102DB00080B584B000AF78607B68DB68DB68BB609F
:102DC000BB6818331846FEF71BF91D4B1B68002B18
:102DD0001CD1BB6804331846FEF712F9BB68DB6AE6
:102DE00001229A40174B1B681343164A1360BB68B5
:102DF000DA6A13469B0013449B00134A1A44BB68CB
:102E0000043319461046FEF7A0F805E0BB681833F6
:102E100019460E48FEF799F8BB68DA6A0C4B1B6836
:102E2000DB6A9A4205D90123FB600A4B01221A6032
:102E300001E00023FB60FB6818461037BD4680BDEB
:102E4000102E0020F02D0020002D0020A82D0020A5
:102E5000FC2C0020FC2D002080B483B000AF7860F3
:102E6000064B1A687B681A60054B1A687B685A60C3
:102E700000BF0C37BD4680BC704700BF002E00204D
:102E8000EC2D002080B584B000AF78603960FEF78B
:102E900029FC1C4B1B68BB603B681B68B3F1FF3F00
:102EA00002D10023FB6026E07B681A68164B1B6882
:102EB0009A4207D07B685B68BA689A4202D30123C2
:102EC000FB6018E07B685B68BA68D21A3B681B68D5
:102ED0009A420ED23B681A687B685968BB68CB1A65
:102EE0001A443B681A607868FFF7B6FF0023FB605E
:102EF00001E00123FB60FEF70FFCFB68184610376A
:102F0000BD4680BDEC2D0020002E002080B400AF17
:102F1000034B01221A6000BFBD4680BC704700BF52
:102F2000FC2D002080B582B000AF786000F052F830
:102F3000064B1B68012BF9D9054B4FF080521A60E4
:102F4000BFF34F8FBFF36F8FF0E700BF002D00205E
:102F500004ED00E080B582B000AF00237B600CE0A0
:102F60007A6813469B0013449B00124A1344184688
:102F7000FDF7C0FF7B6801337B607B68052BEFD9D1
:102F80000D48FDF7B7FF0D48FDF7B4FF0C48FDF7FE
:102F9000B1FF0C48FDF7AEFF0B48FDF7ABFF0B4B45
:102FA000054A1A600A4B054A1A6000BF0837BD4639
:102FB00080BD00BF002D0020782D00208C2D00202A
:102FC000A82D0020BC2D0020D42D0020A02D0020F5
:102FD000A42D002080B582B000AF28E0FFF744FDAB
:102FE000174B1B68002B0CBF01230023DBB27B6057
:102FF000FFF748FD7B68002B19D1FEF773FB104BE0
:10300000DB68DB683B603B6804331846FDF7F8FF7C
:103010000C4B1B68013B0B4A13600B4B1B68013BBD
:10302000094A1360FEF778FB386800F00FF8064B8A
:103030001B68002BD2D100BF00BF0837BD4680BD42
:10304000BC2D0020E82D0020D02D002080B582B0BE
:1030500000AF78607B681B6B1846FDF7E9FE786867
:10306000FDF7E6FE00BF0837BD4680BD80B483B0E3
:1030700000AF0E4B1B681B68002B01D1012300E041
:103080000023002B04D00A4B4FF0FF321A6008E0F7
:10309000064B1B68DB68DB687B607B685B68044A07
:1030A000136000BF0C37BD4680BC7047A02D0020C8
:1030B000082E002080B584B000AF78607B68FB608C
:1030C0007B68002B62D0FB68DA6A324B1B68DB6AD4
:1030D0009A425BD2FB689B69002B06DB2D4B1B6879
:1030E000DB6AC3F10602FB689A61FB685969FB68F9
:1030F000DA6A13469B0013449B00274A1344994203
:1031000001D1012300E00023002B3AD0FB680433F7
:103110001846FDF775FF0346002B15D1FB68DA6AE8
:103120001D4913469B0013449B000B441B68002B56
:103130000AD1FB68DB6A012202FA03F3DA43174B78
:103140001B681340154A1360124B1B68DA6AFB6850
:10315000DA62FB68DB6A01229A40104B1B6813435A
:103160000E4A1360FB68DA6A13469B0013449B0007
:10317000094A1A44FB68043319461046FDF7E5FE78
:1031800004E0044B1B68DA6AFB68DA6200BF1037A0
:10319000BD4680BDFC2C0020002D0020F02D00201D
:1031A00080B584B000AF78607B68BB600023FB60B3
:1031B0007B68002B4FD0BB681B6D5A1EBB681A651D
:1031C000BB68DA6ABB68DB6C9A4244D0BB681B6D93
:1031D000002B40D1BB6804331846FDF711FF0346AE
:1031E000002B15D1BB68DA6A1D4913469B001344B6
:1031F0009B000B441B68002B0AD1BB68DB6A0122D1
:1032000002FA03F3DA43174B1B681340154A1360A5
:10321000BB68DA6CBB68DA62BB68DB6AC3F10602C2
:10322000BB689A61BB68DB6A01229A400D4B1B6840
:1032300013430C4A1360BB68DA6A13469B001344BD
:103240009B00074A1A44BB68043319461046FDF731
:103250007CFE0123FB60FB6818461037BD4680BD2D
:10326000002D0020F02D002080B400AF074B1B681C
:10327000002B04D0054B1B681A6D01321A65034BF5
:103280001B681846BD4680BC704700BFFC2C002060
:1032900080B584B000AF78603960294B1B68FB6053
:1032A000284B1B6804331846FDF7AAFE0346002B83
:1032B0000BD1244B1B68DB6A012202FA03F3DA43C9
:1032C000214B1B681340204A13607B68B3F1FF3F1A
:1032D0000AD13B68002B07D01A4B1B6804331946F0
:1032E0001A48FDF732FE26E0FA687B681344BB609B
:1032F000144B1B68BA685A60BA68FB689A4209D2D4
:10330000134B1A680F4B1B68043319461046FDF720
:103310003FFE10E00F4B1A680A4B1B680433194636
:103320001046FDF735FE0C4B1B68BA689A4202D274
:10333000094ABB68136000BF1037BD4680BD00BF9F
:10334000EC2D0020FC2C0020F02D0020D42D00209E
:10335000A42D0020A02D0020082E00200C480D498F
:103360000D4A002302E0D458C4500433C4188C42E0
:10337000F9D30A4A0A4C002301E013600432A24246
:10338000FBD3FFF76AF901F0D9FCFDF763FE704744
:103390000000002058000020245C00085800002095
:1033A000182E0020FEE7000080B500AF084B1B6818
:1033B000074A43F010031360032000F0F5F80F20D4
:1033C00000F008F8FFF7C4F80023184680BD00BFDE
:1033D0000020024080B582B000AF7860124B1A68BE
:1033E000124B1B7819464FF47A73B3FBF1F3B2FB1F
:1033F000F3F3184600F0FFF80346002B01D0012339
:103400000EE07B680F2B0AD8002279684FF0FF305E
:1034100000F0D5F8064A7B681360002300E0012322
:1034200018460837BD4680BD4C00002054000020DF
:103430005000002080B400AF024B1B681846BD4608
:1034400080BC7047142E002080B485B000AF786037
:103450007B6803F00703FB600C4BDB68BB60BA685A
:103460004FF6FF031340BB60FB681A02BB681343AF
:1034700043F0BF6343F40033BB60044ABB68D360CE
:1034800000BF1437BD4680BC704700BF00ED00E0B0
:1034900080B400AF044BDB681B0A03F00703184637
:1034A000BD4680BC704700BF00ED00E080B483B033
:1034B00000AF03463960FB7197F90730002B0ADB38
:1034C0003B68DAB20C4997F907301201D2B20B44CB
:1034D00083F800230AE03B68DAB20849FB7903F07D
:1034E0000F03043B1201D2B20B441A7600BF0C3713
:1034F000BD4680BC704700BF00E100E000ED00E089
:1035000080B489B000AFF860B9607A60FB6803F0FE
:103510000703FB61FB69C3F10703042B28BF0423E6
:10352000BB61FB690433062B02D9FB69033B00E056
:1035300000237B614FF0FF32BB6902FA03F3DA43E9
:10354000BB681A407B699A404FF0FF317B6901FAF2
:1035500003F3D9437B680B40134318462437BD4619
:1035600080BC704780B582B000AF78607B68013B5B
:10357000B3F1807F01D301230FE00A4A7B68013B4E
:1035800053600F214FF0FF30FFF790FF054B0022F3
:103590009A60044B07221A60002318460837BD467C
:1035A00080BD00BF10E000E080B582B000AF786061
:1035B0007868FFF749FF00BF0837BD4680BD80B57A
:1035C00086B000AF0346B9607A60FB7300237B616D
:1035D000FFF75EFF78617A68B9687869FFF790FF56
:1035E000024697F90F3011461846FFF75FFF00BFFC
:1035F0001837BD4680BD80B582B000AF786078686E
:10360000FFF7B0FF034618460837BD4680BD0000EF
:1036100080B48BB000AF7860396000237B620023F8
:103620003B6269E101227B6A02FA03F3FB613B68BA
:103630001B68FA691340BB61BA69FB699A4240F0A2
:1036400058813B685B689A4A93425ED0984A93429D
:1036500075D8984A934258D0964A93426FD8964A62
:10366000934252D0944A934269D8944A93424CD0A0
:10367000924A934263D8924A934246D0904A9342E8
:103680005DD8122B2AD8122B59D801A252F823F058
:103690000B370008E5360008F73600083937000810
:1036A0003F3700083F3700083F3700083F37000822
:1036B0003F3700083F3700083F3700083F37000812
:1036C0003F3700083F3700083F3700083F37000802
:1036D0003F370008ED36000801370008794A934269
:1036E00013D02CE03B68DB683B6229E03B68DB6879
:1036F00004333B6224E03B68DB6808333B621FE035
:103700003B68DB680C333B621AE03B689B68002B2C
:1037100002D104233B6213E03B689B68012B05D177
:1037200008233B627B68FA691A6109E008233B625F
:103730007B68FA695A6103E000233B6200E000BF46
:10374000BB69FF2B01D87B6801E07B6804337B6198
:10375000BB69FF2B02D87B6A9B0002E07B6A083BB7
:103760009B003B617B691A680F213B6901FA03F3F7
:10377000DB431A40396A3B6901FA03F31A437B6958
:103780001A603B685B6803F08053002B00F0B18047
:103790004D4B9B694C4A43F0010393614A4B9B6933
:1037A00003F00103BB60BB68484A7B6A9B08023395
:1037B00052F82330FB607B6A03F003039B000F2267
:1037C00002FA03F3DB43FA681340FB607B68404A6C
:1037D000934213D07B683F4A93420DD07B683E4AA8
:1037E000934207D07B683D4A934201D1032306E010
:1037F000042304E0022302E0012300E000237A6AAC
:1038000002F0030292009340FA681343FB602F49D1
:103810007B6A9B080233FA6841F823203B685B68A7
:1038200003F48033002B06D02D4B1A682C49BB695A
:1038300013430B6006E02A4B1A68BB69DB43284937
:1038400013400B603B685B6803F40033002B06D029
:10385000234B5A682249BB6913434B6006E0204B57
:103860005A68BB69DB431E4913404B603B685B6889
:1038700003F48013002B06D0194B9A681849BB69D2
:1038800013438B6006E0164B9A68BB69DB4314490F
:1038900013408B603B685B6803F40013002B21D05E
:1038A0000F4BDA680E49BB691343CB6021E000BFC0
:1038B0000000321000003110000022100000211022
:1038C0000000121000001110001002400000014022
:1038D00000080140000C01400010014000140140AC
:1038E000000401400B4BDA68BB69DB430949134014
:1038F000CB607B6A01337B623B681A687B6A22FA81
:1039000003F3002B7FF48EAE00BF00BF2C37BD4603
:1039100080BC70470004014080B485B000AF78607F
:103920000B467B807B689A687B881340002B02D013
:103930000123FB7301E00023FB73FB7B1846143764
:10394000BD4680BC704780B483B000AF78600B4642
:103950007B8013467B707B78002B03D07A887B6852
:103960001A6103E07B881A047B681A6100BF0C3778
:10397000BD4680BC7047000080B584B000AF786061
:103980007B68002B01D101232BE17B6893F83D304C
:10399000DBB2002B06D17B68002283F83C207868DC
:1039A000FEF708FE7B68242283F83D207B681B68B5
:1039B0001A687B681B6822F001021A607B681B682A
:1039C0001A687B681B6842F400421A607B681B68B7
:1039D0001A687B681B6822F400421A6001F018F92B
:1039E000F8607B685B68814A934207D8FB68804A2D
:1039F000934294BF01230023DBB206E0FB687D4ABB
:103A0000934294BF01230023DBB2002B01D001239A
:103A1000E7E0FB68784AA2FB03239B0CBB607B6852
:103A20001B685B6823F03F017B681B68BA680A4328
:103A30005A607B681B681B6A23F03F017B685B68E8
:103A40006A4A934202D8BB68013309E0BB684FF46D
:103A5000967202FB03F3694AA2FB03239B0901331D
:103A60007A6812680B4313627B681B68DB6923F476
:103A70004F4222F0FF027B685B685C498B4219D899
:103A8000FB68591E7B685B685B00B1FBF3F3591C54
:103A900040F6FC730B40002B0AD0FB68591E7B6874
:103AA0005B685B00B1FBF3F30133C3F30B0351E03D
:103AB00004234FE07B689B68002B11D1FB68581EE4
:103AC0007B6859680B465B000B44B0FBF3F3013392
:103AD000C3F30B03002B0CBF01230023DBB212E066
:103AE000FB68581E7B6859680B469B000B44990085
:103AF0000B44B0FBF3F30133C3F30B03002B0CBFF8
:103B000001230023DBB2002B01D0012322E07B68DC
:103B10009B68002B0ED1FB68581E7B6859680B46CA
:103B20005B000B44B0FBF3F30133C3F30B0343F42B
:103B300000430FE0FB68581E7B6859680B469B00EA
:103B40000B4499000B44B0FBF3F30133C3F30B03B5
:103B500043F44043796809681343CB617B681B6871
:103B60001B6823F0C0017B68DA697B681B6A1A4313
:103B70007B681B680A431A607B681B689B6823F498
:103B8000034323F0FF037A6811697A68D26811430E
:103B90007A6812680B4393607B681B68DB6823F0CC
:103BA000FF017B685A697B689B691A437B681B68C5
:103BB0000A43DA607B681B681A687B681B6842F0FE
:103BC00001021A607B6800221A647B68202283F855
:103BD0003D207B6800221A637B68002283F83E2028
:103BE000002318461037BD4680BD00BFA0860100E7
:103BF0007F841E00FF083D0083DE1B43D34D62100F
:103C000080B588B002AFF8607A601A460B467B81B7
:103C100013463B81FFF70EFC7861FB6893F83D305B
:103C2000DBB2202B40F0E0807B6900931923012256
:103C30007049F86800F092FA0346002B01D0022385
:103C4000D3E0FB6893F83C30012B01D10223CCE098
:103C5000FB68012283F83C20FB681B681B6803F0AB
:103C60000103012B07D0FB681B681A68FB681B68FF
:103C700042F001021A60FB681B681A68FB681B6847
:103C800022F400621A60FB68212283F83D20FB6861
:103C9000102283F83E20FB6800221A64FB687A68D1
:103CA0005A62FB683A895A85FB685B8D9AB2FB6859
:103CB0001A85FB68504ADA6279897B693A6AF86842
:103CC00000F0CAF90346002B01D001238DE0002348
:103CD0003B61FB681B685B693B61FB681B689B6918
:103CE0003B613B6966E07A69396AF86800F00CFB71
:103CF0000346002B0DD0FB681B6C042B07D1FB681F
:103D00001B681A68FB681B6842F400721A60012382
:103D10006BE0FB685B6A1A78FB681B681A61FB68DA
:103D20005B6A5A1CFB685A62FB685B8D9BB2013B65
:103D30009AB2FB685A85FB681B8D013B9AB2FB68FF
:103D40001A85FB681B685B6903F00403042B1BD115
:103D5000FB681B8D002B17D0FB685B6A1A78FB6829
:103D60001B681A61FB685B6A5A1CFB685A62FB6835
:103D70005B8D9BB2013B9AB2FB685A85FB681B8D39
:103D8000013B9AB2FB681A857A69396AF86800F0D3
:103D9000FCFA0346002B0DD0FB681B6C042B07D1EB
:103DA000FB681B681A68FB681B6842F400721A60A3
:103DB00001231AE0FB681B8D002B94D1FB681B6864
:103DC0001A68FB681B6842F400721A60FB682022C4
:103DD00083F83D20FB68002283F83E20FB68002228
:103DE00083F83C20002300E0022318461837BD4624
:103DF00080BD00BF020010000000FFFF80B58AB048
:103E000002AFF8607A603B600B467B81FFF712FBE4
:103E1000F8610123BB61FB6893F83D30DBB2202BD6
:103E200040F01181FB690093192301228849F86849
:103E300000F094F90346002B01D0022304E1FB6853
:103E400093F83C30012B01D10223FDE0FB680122F5
:103E500083F83C20FB681B681B6803F00103012BFF
:103E600007D0FB681B681A68FB681B6842F00102F8
:103E70001A60FB681B681A68FB681B6822F4006202
:103E80001A60FB68242283F83D20FB6800221A6434
:103E9000FB68704ADA62FB681B681A68FB681B687B
:103EA00042F480721A60FB6900933B6800224FF075
:103EB0000111F86800F052F90346002B0DD0FB68A1
:103EC0001B681B6803F48073B3F5807F03D1FB6824
:103ED0004FF400721A640323B6E07B89DBB21A4602
:103EE000FB681B6802F0FE021A61FFF7A3FAF86193
:103EF000FB681B685B6903F00203022B0CBF012304
:103F00000023DBB2FB75FB681B685B6903F480630D
:103F1000B3F5806F0CBF01230023DBB2BB7525E036
:103F2000FFF788FA0246FB69D31A3A689A4202D32D
:103F30003B68002B03D1FB68A02283F83D20FB687F
:103F40001B685B6903F00203022B0CBF01230023F3
:103F5000DBB2FB75FB681B685B6903F48063B3F538
:103F6000806F0CBF01230023DBB2BB75FB6893F8A5
:103F70003D30DBB2A02B05D0FB7D002B02D1BB7DF9
:103F8000002BCDD0FB68202283F83D20FB681B6806
:103F90005B6903F00203022B29D1FB681B681A68D6
:103FA000FB681B6842F400721A6000233B61FB68E7
:103FB0001B685B693B61FB681B689B693B613B69F4
:103FC000FB690093192301222149F86800F0C6F823
:103FD0000346002B01D0012336E0FB68202283F842
:103FE0003D20FB68002283F83C2000232CE0FB6886
:103FF0001B681A68FB681B6842F400721A60FB6851
:104000001B686FF480625A61FB69009319230122D7
:104010000F49F86800F0A2F80346002B01D00123F5
:1040200012E0BB690133BB61BA697B689A42FFF455
:1040300032AFFB68202283F83D20FB68002283F822
:104040003C20012300E0022318462037BD4680BDF6
:10405000020010000000FFFF80B588B002AFF860DA
:104060007A603B600B467B81FB68DB6A7B617B6926
:10407000082B06D07B69012B03D07B6913F5803FA9
:1040800008D1FB681B681A68FB681B6842F48072E1
:104090001A600BE0FB681B6B122B07D1FB681B68D7
:1040A0001A68FB681B6842F480721A603B680093D0
:1040B0007B6800224FF00111F86800F04FF80346CA
:1040C000002B0DD0FB681B681B6803F48073B3F5ED
:1040D000807F03D1FB684FF400721A64032335E03C
:1040E000FB681B69B3F5804F08D17B89DBB21A46A8
:1040F000FB681B6802F0FE021A611BE07B89DB1182
:10410000DBB203F00603DBB263F00F03DAB2FB6845
:104110001B681A613B687A680E49F86800F075F808
:104120000346002B01D0012310E07B89DAB2FB6843
:104130001B681A613B687A680749F86800F065F8FF
:104140000346002B01D0012300E000231846183756
:10415000BD4680BD080001000200010080B584B0AA
:1041600000AFF860B9603B601346FB7125E03B6827
:10417000B3F1FF3F21D0FFF75DF90246BB69D31AC7
:104180003A689A4202D33B68002B16D1FB680022A2
:104190001A63FB68202283F83D20FB68002283F825
:1041A0003E20FB681B6C43F02002FB681A64FB682E
:1041B000002283F83C20012323E0BB681B0CDBB208
:1041C000012B0DD1FB681B685B69DA43BB681340A8
:1041D0009BB2002B0CBF01230023DBB21A460CE07C
:1041E000FB681B689B69DA43BB6813409BB2002BDA
:1041F0000CBF01230023DBB21A46FB799A42B6D0EA
:10420000002318461037BD4680BD80B584B000AF8E
:10421000F860B9607A603B6051E0FB681B685B69DD
:1042200003F48063B3F5806F23D1FB681B681A68C1
:10423000FB681B6842F400721A60FB681B686FF42D
:1042400080625A61FB6800221A63FB68202283F8AF
:104250003D20FB68002283F83E20FB681B6C43F086
:104260000402FB681A64FB68002283F83C200123E7
:1042700046E07B68B3F1FF3F21D0FFF7DBF8024651
:104280003B68D31A7A689A4202D37B68002B16D116
:10429000FB6800221A63FB68202283F83D20FB683C
:1042A000002283F83E20FB681B6C43F02002FB6871
:1042B0001A64FB68002283F83C20012320E0BB68DD
:1042C0001B0CDBB2012B0CD1FB681B685B69DA436A
:1042D000BB6813409BB2002B14BF01230023DBB249
:1042E0000BE0FB681B689B69DA43BB6813409BB219
:1042F000002B14BF01230023DBB2002B8DD1002340
:1043000018461037BD4680BD80B584B000AFF86058
:10431000B9607A602DE0F86800F078F80346002B69
:1043200001D001232DE0BB68B3F1FF3F21D0FFF79F
:1043300081F802467B68D31ABA689A4202D3BB68F6
:10434000002B16D1FB6800221A63FB68202283F839
:104350003D20FB68002283F83E20FB681B6C43F085
:104360002002FB681A64FB68002283F83C200123CA
:1043700007E0FB681B685B6903F08003802BCAD1F0
:10438000002318461037BD4680BD80B584B000AF0D
:10439000F860B9607A602DE0F86800F037F80346FD
:1043A000002B01D001232DE0BB68B3F1FF3F21D0EA
:1043B000FFF740F802467B68D31ABA689A4202D3E4
:1043C000BB68002B16D1FB6800221A63FB68202211
:1043D00083F83D20FB68002283F83E20FB681B6CBD
:1043E00043F02002FB681A64FB68002283F83C203B
:1043F000012307E0FB681B685B6903F00403042BDF
:10440000CAD1002318461037BD4680BD80B483B0A2
:1044100000AF78607B681B685B6903F48063B3F569
:10442000806F1BD17B681B686FF480625A617B6868
:1044300000221A637B68202283F83D207B680022DB
:1044400083F83E207B681B6C43F004027B681A648F
:104450007B68002283F83C20012300E000231846FB
:104460000C37BD4680BC704780B586B000AF786021
:104470007B68002B01D1012372E27B681B6803F08B
:104480000103002B00F08780924B5B6803F00C0364
:10449000042B0CD08F4B5B6803F00C03082B12D15C
:1044A0008C4B5B6803F48033B3F5803F0BD1894BB1
:1044B0001B6803F40033002B6CD07B685B68002B17
:1044C00068D101234CE27B685B68B3F5803F06D17D
:1044D000804B1B687F4A43F4803313602EE07B6877
:1044E0005B68002B0CD17B4B1B687A4A23F480332A
:1044F0001360784B1B68774A23F4802313601DE018
:104500007B685B68B3F5A02F0CD1724B1B68714AB6
:1045100043F4802313606F4B1B686E4A43F480336F
:1045200013600BE06B4B1B686A4A23F48033136003
:10453000684B1B68674A23F4802313607B685B68C1
:10454000002B13D0FEF776FF386108E0FEF772FF0C
:1045500002463B69D31A642B01D9032300E25D4B69
:104560001B6803F40033002BF0D014E0FEF762FF69
:10457000386108E0FEF75EFF02463B69D31A642B00
:1045800001D90323ECE1534B1B6803F40033002BE8
:10459000F0D100E000BF7B681B6803F00203002B32
:1045A00063D04C4B5B6803F00C03002B0BD0494BE2
:1045B0005B6803F00C03082B1CD1464B5B6803F4CB
:1045C0008033002B16D1434B1B6803F00203002BF2
:1045D00005D07B681B69012B01D00123C0E13D4B55
:1045E0001B6823F0F8027B685B69DB0039491343E1
:1045F0000B603AE07B681B69002B20D0364B012210
:104600001A60FEF717FF386108E0FEF713FF024655
:104610003B69D31A022B01D90323A1E12D4B1B685F
:1046200003F00203002BF0D02A4B1B6823F0F802A2
:104630007B685B69DB00274913430B6015E0264B61
:1046400000221A60FEF7F6FE386108E0FEF7F2FE7F
:1046500002463B69D31A022B01D9032380E11D4B8B
:104660001B6803F00203002BF0D17B681B6803F08A
:104670000803002B3AD07B689B69002B19D0174B9D
:1046800001221A60FEF7D6FE386108E0FEF7D2FE7E
:1046900002463B69D31A022B01D9032360E10D4B7B
:1046A0005B6A03F00203002BF0D0012000F0C4FA93
:1046B0001CE00A4B00221A60FEF7BCFE38610FE0D6
:1046C000FEF7B8FE02463B69D31A022B08D9032332
:1046D00046E100BF00100240000042428004424216
:1046E000924B5B6A03F00203002BE9D17B681B68E5
:1046F00003F00403002B00F0A6800023FB758B4B16
:10470000DB6903F08053002B0DD1884BDB69874AAE
:1047100043F08053D361854BDB6903F08053BB606A
:10472000BB680123FB75824B1B6803F48073002B6D
:1047300018D17F4B1B687E4A43F480731360FEF7E9
:1047400079FE386108E0FEF775FE02463B69D31A30
:10475000642B01D9032303E1754B1B6803F48073B9
:10476000002BF0D07B68DB68012B06D16F4B1B6AF6
:104770006E4A43F0010313622DE07B68DB68002B77
:104780000CD16A4B1B6A694A23F001031362674B21
:104790001B6A664A23F0040313621CE07B68DB6833
:1047A000052B0CD1614B1B6A604A43F00403136272
:1047B0005E4B1B6A5D4A43F0010313620BE05B4BE7
:1047C0001B6A5A4A23F001031362584B1B6A574A6B
:1047D00023F0040313627B68DB68002B15D0FEF71F
:1047E00029FE38610AE0FEF725FE02463B69D31A2E
:1047F00041F28832934201D90323B1E04B4B1B6A4B
:1048000003F00203002BEED014E0FEF713FE386134
:104810000AE0FEF70FFE02463B69D31A41F28832E6
:10482000934201D903239BE0404B1B6A03F0020330
:10483000002BEED1FB7D012B05D13C4BDB693B4AC4
:1048400023F08053D3617B68DB69002B00F0878005
:10485000364B5B6803F00C03082B61D07B68DB6987
:10486000022B46D1334B00221A60FEF7E3FD38617C
:1048700008E0FEF7DFFD02463B69D31A022B01D99F
:1048800003236DE0294B1B6803F00073002BF0D16C
:104890007B681B6AB3F5803F08D1244B5B6823F427
:1048A00000327B689B68214913434B601F4B5B6858
:1048B00023F474127B68196A7B685B6A0B431B499B
:1048C00013434B601B4B01221A60FEF7B3FD3861A6
:1048D00008E0FEF7AFFD02463B69D31A022B01D96F
:1048E00003233DE0114B1B6803F00073002BF0D055
:1048F00035E0104B00221A60FEF79CFD386108E09D
:10490000FEF798FD02463B69D31A022B01D9032317
:1049100026E0064B1B6803F00073002BF0D11EE06D
:104920007B68DB69012B07D1012319E000100240ED
:1049300000700040600042420B4B5B68FB60FB680C
:1049400003F480327B681B6A9A4206D1FB6803F449
:1049500070127B685B6A9A4201D0012300E0002359
:1049600018461837BD4680BD0010024080B584B09F
:1049700000AF786039607B68002B01D10123D0E063
:104980006A4B1B6803F007033A689A4210D9674BD9
:104990001B6823F0070265493B6813430B60634BB8
:1049A0001B6803F007033A689A4201D00123B8E07C
:1049B0007B681B6803F00203002B20D07B681B6818
:1049C00003F00403002B05D0594B5B68584A43F4AD
:1049D000E06353607B681B6803F00803002B05D07D
:1049E000534B5B68524A43F460535360504B5B68CF
:1049F00023F0F0027B689B684D4913434B607B6852
:104A00001B6803F00103002B40D07B685B68012B1F
:104A100007D1474B1B6803F40033002B15D101234A
:104A20007FE07B685B68022B07D1414B1B6803F07A
:104A30000073002B09D1012373E03D4B1B6803F089
:104A40000203002B01D101236BE0394B5B6823F09B
:104A500003027B685B68364913434B60FEF7EAFC50
:104A6000F8600AE0FEF7E6FC0246FB68D31A41F262
:104A70008832934201D9032353E02D4B5B6803F046
:104A80000C027B685B689B009A42EBD1274B1B684A
:104A900003F007033A689A4210D2244B1B6823F0B4
:104AA000070222493B6813430B60204B1B6803F04D
:104AB00007033A689A4201D0012332E07B681B6801
:104AC00003F00403002B08D0194B5B6823F4E06269
:104AD0007B68DB68164913434B607B681B6803F0F7
:104AE0000803002B09D0124B5B6823F460527B68EB
:104AF0001B69DB000E4913434B6000F021F80246AE
:104B00000B4B5B681B0903F00F030A49CB5C22FACD
:104B100003F3094A1360094B1B681846FEF75AFC59
:104B2000002318461037BD4680BD00BF002002405C
:104B300000100240DC5B00084C0000205000002008
:104B400090B48AB000AF294B3C1D0FCB84E80F0016
:104B500040F201233B800023FB610023BB61002363
:104B60007B6200237B6100233B62214B5B68FB611E
:104B7000FB6903F00C03042B02D0082B03D02BE0BD
:104B80001C4B3B622BE0FB699B0C03F00F032833AB
:104B90003B4413F8243C7B61FB6903F48033002B16
:104BA00012D0134B5B685B0C03F0010328333B44CA
:104BB00013F8283CBB617B690E4A03FB02F2BB6918
:104BC000B2FBF3F37B6204E07B690B4A02FB03F365
:104BD0007B627B6A3B6202E0064B3B6200BF3B6A42
:104BE00018462837BD4690BC704700BF704E00087D
:104BF0000010024000127A0000093D0080B400AFAE
:104C0000024B1B681846BD4680BC70474C00002014
:104C100080B500AFFFF7F2FF0246054B5B681B0A49
:104C200003F007030349CB5C22FA03F3184680BD67
:104C300000100240EC5B000880B485B000AF7860E3
:104C40000A4B1B680A4AA2FB03235B0A7A6802FB31
:104C500003F3FB6000BFFB685A1EFA60002BF9D11A
:104C600000BF00BF1437BD4680BC70474C00002019
:104C7000D34D6210931E222B10B50C4604D900238D
:104C80001C460B70204610BD0A2A09D1002807DAFD
:104C90002D230B7001214042214400F005F8F1E77B
:104CA0000021F9E7FFF7E6BFF0B58BB005460B46EC
:104CB0006E461D4C04F1200C3746206861680834AC
:104CC00003C764453E46F7D1217920683971911EAA
:104CD000222938604FF0000104D919700B4618469C
:104CE0000BB0F0BD581E8446B5FBF2F702FB175619
:104CF00028366E4416F8286C0C460CF8016F2E46C8
:104D0000B2423D4601F10101EED900225A5419196F
:104D1000A51AAA42E3DA10F8015F0E780132067094
:104D200001F80159F4E700BFF45B000803460244B0
:104D3000934200D1704703F8011BF9E770B50026D4
:104D40000C4D0D4C641BA410A64209D100F028F8AC
:104D500000260A4D0A4C641BA410A64205D170BD62
:104D600055F8043B98470136EEE755F8043B984761
:104D70000136F2E71C5C00081C5C00081C5C0008A3
:104D8000205C00080A44914200F1FF3300D17047D3
:104D900010B511F8014B914203F8014FF9D110BD44
:104DA000F8B500BFF8BC08BC9E467047F8B500BF18
:084DB000F8BC08BC9E467047E8
:104DB800436865636B5265710000000020000000C5
:104DC80000000000010000000300000002000000D5
:104DD800010000000100000003000000526F626F34
:104DE8007469637300000000436F726E6572204738
:104DF8003700000050726F6A656374005072657303
:104E0800732057004F6E204170700000746F20525D
:104E18006561640054656D703A20000048756D2026
:104E28003A200000416374203A200000444854317D
:104E38003153656E736F725461736B0020200000EC
:104E48004163747561746F725461736B0000000084
:104E58004F4E000020202020000000004F46460052
:104E680049444C45000000000203040506070809F0
:104E78000A0B0C0D0E0F10100000000000000000BF
:104E8800000000000000000000000000000000001A
:104E98000000000000000000000000000000000CFE
:104EA800000C000C000C000C000C000C000C000C9A
:104EB800000C000C0000000C000C000000000000BA
:104EC8000000001B001B001B001B001B0000000053
:104ED80000000000000000000000000000000000CA
:104EE8000000000000008019801980198019C07F17
:104EF800C07F80190033C07FC07F00330033003388
:104F080000330000000000000000001E003F807514
:104F180080650074003C001E000780058065806580
:104F28008075003F001E00040004000000000070AF
:104F380000D840D8C0D880D900730006000C801B68
:104F4800C036C066C046C0068003000000000000EE
:104F58000000001E003F003300330033001E000C29
:104F6800C03CC066806380618063C03E801C0000D6
:104F7800000000000000000C000C000C000C000CED
:104F88000000000000000000000000000000000019
:104F9800000000000000000080000001000300067F
:104FA80000060004000C000C000C000C000C000CA7
:104FB8000004000600060003000180000020001025
:104FC8000018000C000C000400060006000600068D
:104FD800000600060004000C000C00180010002059
:104FE8000000000C002D003F001E003300000000F0
:104FF80000000000000000000000000000000000A9
:1050080000000000000000000000000C000C000C74
:10501800000CC0FFC0FF000C000C000C000C0000CE
:105028000000000000000000000000000000000078
:105038000000000000000000000000000000000068
:105048000000000C000C0004000400080000000030
:105058000000000000000000000000000000001E2A
:10506800001E00000000000000000000000000001A
:105078000000000000000000000000000000000028
:1050880000000000000000000000000C000C000000
:1050980000000000000000030003000300060006F3
:1050A80000060006000C000C000C000C001800188C
:1050B80000180000000000000000001E003F003340
:1050C800806180618061806D806D806180618061B8
:1050D8000033003F001E0000000000000000000632
:1050E800000E001E00360026000600060006000618
:1050F800000600060006000600060000000000008A
:105108000000001E003F8073806180618001000301
:105118000006000C001800300060807F807F0000CF
:10512800000000000000001C003E00630063000354
:10513800000E000E00038001800180618073003F33
:10514800001E00000000000000000006000E000E17
:10515800001E001E0016003600360066807F807F25
:105168000006000600060000000000000000007FA6
:10517800007F006000600060006E007F8063800137
:10518800800180618073003F001E00000000000065
:105198000000001E003F803380610060006E007FC9
:1051A80080738061806180618033003F001E000051
:1051B800000000000000807F807F80010003000362
:1051C80000060006000C000C000C0008001800186F
:1051D80000180000000000000000001E003F80636F
:1051E800806180610021001E003F806180618061D4
:1051F8008061003F001E0000000000000000001E4B
:10520800003F00738061806180618073803F801DF2
:10521800800180610073003F001E00000000000054
:1052280000000000000000000000000C000C00005E
:1052380000000000000000000000000C000C00004E
:105248000000000000000000000000000000000056
:10525800000C000C00000000000000000000000C22
:10526800000C00040004000800000000000000001A
:1052780080008003000E003800600038000E8003B4
:105288008000000000000000000000000000000096
:10529800000000000000807F807F00000000807F09
:1052A800807F0000000000000000000000000000F7
:1052B800000000000000000000400070001C000713
:1052C80080010007001C0070004000000000000082
:1052D800000000000000001F803FC071C060C000D7
:1052E800C00180030007000E000C000C0000000C39
:1052F800000C0000000000000000001E003F80318C
:1053080080718063806F806D806D806F80670060C2
:105318000032003E001C0000000000000000000EEB
:10532800000E001B001B001B001B80318031803FDA
:10533800803F8031C060C060C06000000000000095
:105348000000007C007E0063006300630063007E51
:10535800007E0063806180618063007F007E0000C2
:10536800000000000000001E003F803180610060E6
:105378000060006000600060006080618031003F74
:10538800001E0000000000000000007C007F006399
:105398008063806180618061806180618061006379
:1053A8000063007E007C0000000000000000807F99
:1053B800807F0060006000600060007F007F006008
:1053C800006000600060807F807F000000000000B7
:1053D8000000807F807F0060006000600060007FC8
:1053E800007F0060006000600060006000600000F6
:1053F800000000000000001E003F80318061006056
:105408000060006080638063806180618031803FDC
:10541800001E0000000000000000806180618061C3
:10542800806180618061807F807F80618061806130
:105438008061806180610000000000000000003F82
:10544800003F000C000C000C000C000C000C000CC1
:10545800000C000C000C003F003F000000000000A2
:1054680000008001800180018001800180018001AD
:1054780080018001806180618073003F001E000010
:10548800000000000000C0608061006300660066E4
:10549800006C0078007C00660066006380618061B3
:1054A800C0600000000000000000006000600060B4
:1054B80000600060006000600060006000600060E4
:1054C8000060807F807F0000000000000000C07145
:1054D800C071C07BC07AC06AC06AC06EC064C06058
:1054E800C060C060C060C060C06000000000000014
:1054F800000080718071807980798079806D806DFD
:10550800806D806580678067806780638063000046
:10551800000000000000001E003F00338061806131
:105528008061806180618061806180610033003FBB
:10553800001E0000000000000000007E007F806365
:105548008061806180618063007F007E0060006010
:105558000060006000600000000000000000001E05
:10556800003F00338061806180618061806180617B
:10557800806580670033803F401E00000000000007
:105588000000007E007F8063806180618063007F0F
:10559800007E00660063006380618061C060000077
:1055A800000000000000000E001F80318031003034
:1055B8000038001E00078003806180618031003F51
:1055C800001E0000000000000000C0FFC0FF000C2B
:1055D800000C000C000C000C000C000C000C000C63
:1055E800000C000C000C00000000000000008061AE
:1055F800806180618061806180618061806180619B
:10560800806180618073003F001E00000000000080
:105618000000C060C060C060803180318031001BF4
:10562800001B001B001B000E000E000E00040000F3
:10563800000000000000C0C0C0C0C0C0C0C0C0C0E2
:10564800C0CC804C804C805E8052805280738061D8
:1056580080610000000000000000C0C08060806120
:105668000033003B001E000C000C001E001F003B16
:1056780080718061C0C00000000000000000C0C050
:105688008061806100330033001E001E000C000C96
:10569800000C000C000C000C000C000000000000C6
:1056A8000000803F803F8001000300030006000CDB
:1056B800000C0018001800300060807F807F000018
:1056C80000000000000F000F000C000C000C000C84
:1056D800000C000C000C000C000C000C000C000C62
:1056E800000C000C000F000F000000180018001834
:1056F800000C000C000C000C00060006000600065A
:10570800000300030003000000000000001E001E4C
:105718000006000600060006000600060006000651
:10572800000600060006000600060006001E001E11
:105738000000000C000C001E0012003300338061D2
:105748008061000000000000000000000000000070
:105758000000000000000000000000000000000041
:105768000000000000000000000000000000000031
:1057780000000000E0FF0000000000380018000CE6
:105788000000000000000000000000000000000011
:105798000000000000000000000000000000000001
:1057A800000000000000001F803F80618001801F12
:1057B800803F80618063807FC03800000000000067
:1057C80000000060006000600060006E007F807371
:1057D80080618061806180618073007F006E00005D
:1057E8000000000000000000000000000000001E93
:1057F800003F807380610060006080618073003FBB
:10580800001E0000000000000000800180018001EF
:105818008001801D803F807380618061806180612C
:105828008073803F801D0000000000000000000021
:10583800000000000000001E003F00738061807FB0
:10584800807F00608071003F001E000000000000A3
:105858000000C007C00F000C000C807F807F000C88
:10586800000C000C000C000C000C000C000C0000DC
:10587800000000000000000000000000801D803FC4
:10588800807380618061806180618073803F801D4A
:1058980080018063007F003E0000006000600060BF
:1058A8000060006F807F80718061806180618061AD
:1058B8008061806180610000000000000000000637
:1058C800000600000000003E003E0006000600063C
:1058D80000060006000600060006000000000000A2
:1058E8000006000600000000003E003E000600061C
:1058F8000006000600060006000600060006004630
:10590800007E003C00000060006000600060806174
:1059180000630066006C007C0076006300638061B1
:10592800C0600000000000000000003E003E0006CD
:10593800000600060006000600060006000600062F
:10594800000600060006000000000000000000003D
:1059580000000000000080DDC0FFC0CEC0CCC0CC7D
:10596800C0CCC0CCC0CCC0CCC0CC00000000000073
:1059780000000000000000000000006F807F8071C0
:1059880080618061806180618061806180610000E8
:105998000000000000000000000000000000001EE1
:1059A800003F807380618061806180618073003F07
:1059B800001E0000000000000000000000000000C1
:1059C800006E007F80738061806180618061807378
:1059D800007F006E00600060006000600000000052
:1059E80000000000801D803F8073806180618061BD
:1059F80080618073803F801D80018001800180016B
:105A0800000000000000000000000067803F00392F
:105A1800003000300030003000300030003000002E
:105A28000000000000000000000000000000001E50
:105A3800803F80610060007F803F80018061007F3F
:105A4800001E000000000000000000000008001810
:105A58000018007F007F00180018001800180018B0
:105A68000018801F800F00000000000000000000E8
:105A780000000000000080618061806180618061B9
:105A8800806180618063807F803D000000000000AD
:105A980000000000000000000000C060803180317C
:105AA8008031001B001B001B000E000E00060000CA
:105AB800000000000000000000000000000080DD81
:105AC80080DD80DD00550055005500770077002205
