:020000040800F2
:1000000000500020E5270008B51B0008BB1B0008B6
:10001000C11B0008C71B0008CD1B00080000000022
:10002000000000000000000000000000D10C0008EB
:10003000D31B000800000000C10D0008090E0008D5
:100040002D2800082D2800082D2800082D2800083C
:100050002D2800082D2800082D2800082D2800082C
:100060002D2800082D2800082D2800082D2800081C
:100070002D2800082D2800082D2800082D2800080C
:100080002D2800082D2800082D2800082D280008FC
:100090002D2800082D2800082D2800082D280008EC
:1000A0002D2800082D2800082D2800082D280008DC
:1000B0002D2800082D2800082D2800082D280008CC
:1000C0002D2800082D2800082D2800082D280008BC
:1000D0002D2800082D2800082D2800082D280008AC
:1000E0002D2800082D2800082D28000800000000F9
:1000F0000000000000000000000000000000000000
:0C01000000000000000000005FF808F1A3
:1001100010B5054C237833B9044B13B10448AFF341
:1001200000800123237010BD1C000020000000008F
:100130001041000808B5034B1BB103490348AFF356
:10014000008008BD000000002000002010410008D1
:1001500081F0004102E000BF83F0004330B54FEA78
:1001600041044FEA430594EA050F08BF90EA020FE5
:100170001FBF54EA000C55EA020C7FEA645C7FEA78
:10018000655C00F0E2804FEA5454D4EB5555B8BF9B
:100190006D420CDD2C4480EA020281EA030382EA0C
:1001A000000083EA010180EA020281EA0303362D9E
:1001B00088BF30BD11F0004F4FEA01314FF4801C71
:1001C0004CEA113102D0404261EB410113F0004F83
:1001D0004FEA03334CEA133302D0524263EB43033A
:1001E00094EA050F00F0A780A4F10104D5F1200ED8
:1001F0000DDB02FA0EFC22FA05F2801841F1000133
:1002000003FA0EF2801843FA05F359410EE0A5F106
:1002100020050EF1200E012A03FA0EFC28BF4CF037
:10022000020C43FA05F3C01851EBE37101F00045ED
:1002300007D54FF0000EDCF1000C7EEB00006EEBFA
:100240000101B1F5801F1BD3B1F5001F0CD3490884
:100250005FEA30004FEA3C0C04F101044FEA4452DB
:1002600012F5800F80F09A80BCF1004F08BF5FEA62
:10027000500C50F1000041EB045141EA050130BD42
:100280005FEA4C0C404141EB0101013C28BFB1F554
:10029000801FE9D291F0000F04BF01460020B1FA9F
:1002A00081F308BF2033A3F10B03B3F120020CDA72
:1002B0000C3208DD02F1140CC2F10C0201FA0CF050
:1002C00021FA02F10CE002F11402D8BFC2F1200CB5
:1002D00001FA02F120FA0CFCDCBF41EA0C0190406B
:1002E000E41AA2BF01EB0451294330BD6FEA0404B4
:1002F0001F3C1CDA0C340EDC04F11404C4F120029F
:1003000020FA04F001FA02F340EA030021FA04F3B0
:1003100045EA030130BDC4F10C04C4F1200220FA07
:1003200002F001FA04F340EA0300294630BD21FA45
:1003300004F0294630BD94F0000F83F4801306BF0B
:1003400081F480110134013D4EE77FEA645C18BFFF
:100350007FEA655C29D094EA050F08BF90EA020F96
:1003600005D054EA000C04BF1946104630BD91EA8E
:10037000030F1EBF0021002030BD5FEA545C05D191
:100380004000494128BF41F0004130BD14F58004D0
:100390003CBF01F5801130BD01F0004545F0FE4144
:1003A00041F470014FF0000030BD7FEA645C1ABF79
:1003B000194610467FEA655C1CBF0B46024650EAB0
:1003C000013406BF52EA033591EA030F41F40021DC
:1003D00030BD00BF90F0000F04BF0021704730B562
:1003E0004FF4806404F132044FF000054FF0000137
:1003F00050E700BF90F0000F04BF0021704730B5F8
:100400004FF4806404F1320410F0004548BF4042CC
:100410004FF000013EE700BF42004FEAE2014FEA21
:1004200031014FEA02701FBF12F07F4393F07F4FFC
:1004300081F06051704732F07F4208BF704793F0FF
:100440007F4F04BF41F40021704730B54FF4607412
:1004500001F0004521F000411CE700BF50EA010215
:1004600008BF704730B54FF000050AE050EA0102BE
:1004700008BF704730B511F0004502D5404261EB2E
:1004800041014FF4806404F132045FEA915C3FF46F
:10049000D8AE4FF003025FEADC0C18BF03325FEA0C
:1004A000DC0C18BF033202EBDC02C2F1200300FABD
:1004B00003FC20FA02F001FA03FE40EA0E0021FAE2
:1004C00002F11444BDE600BF4FF0FF3C06E000BF60
:1004D0004FF0010C02E000BF4FF0010C4DF804CDCD
:1004E0004FEA410C7FEA6C5C4FEA430C18BF7FEA8D
:1004F0006C5C1BD001B050EA410C0CBF52EA430CBB
:1005000091EA030F02BF90EA020F0020704710F13A
:10051000000F91EA030F58BF994208BF90422CBFC9
:10052000D8176FEAE37040F0010070474FEA410CC2
:100530007FEA6C5C02D150EA013C07D14FEA430CE0
:100540007FEA6C5CD6D152EA033CD3D05DF8040B51
:10055000704700BF8446104662468C461946634683
:1005600000E000BF01B5FFF7B7FF002848BF10F15A
:10057000000F01BD4DF808EDFFF7F4FF0CBF01209F
:1005800000205DF808FB00BF4DF808EDFFF7EAFF1B
:1005900034BF012000205DF808FB00BF4DF808EDD6
:1005A000FFF7E0FF94BF012000205DF808FB00BFCB
:1005B0004DF808EDFFF7CEFF94BF012000205DF855
:1005C00008FB00BF4DF808EDFFF7C4FF34BF012062
:1005D00000205DF808FB00BF80B588B000AF7860F0
:1005E00000237B6101F084FC3E4B1B68002B04D18F
:1005F00000F0BAF83B4B01221A607B68002B0ED04A
:1006000008231A467B6813447B607B6803F007036A
:10061000002B04D07B6823F0070308337B607B68E2
:10062000002B57D07B6842F2F772934252D82E4B80
:10063000BB612D4B1B68FB6104E0FB69BB61FB697F
:100640001B68FB61FB695B687A689A4203D9FB69A6
:100650001B68002BF1D1FB69244A93423AD0BB6955
:100660001B68082213447B61FB691A68BB691A6026
:10067000FB695A687B68D31A08225200934222D938
:10068000FA697B681344FB60FB695A687B68D21A7D
:10069000FB685A60FB697A685A60FB685B68BB60FC
:1006A000114B3B6102E03B691B683B613B691B6886
:1006B0005B68BA689A42F6D83B691A68FB681A60A8
:1006C0003B69FA681A600A4B1A68FB695B68D31ABF
:1006D000074A136001F01AFC7B6918462037BD46B3
:1006E00080BD00BF48280020382800204028002076
:1006F0000800002080B586B000AF78607B683B6161
:100700007B68002B27D008235B423A6913443B6186
:100710003B69FB6001F0ECFBFB685B68BB60104B66
:100720007B6102E07B691B687B617B691B685B689E
:10073000BA689A42F6D87B691A68FB681A607B69C6
:10074000FA681A60FB685A68064B1B681344054A2E
:10075000136001F0DBFB00BF1837BD4680BD00BF52
:10076000382800200800002080B483B000AF0F4B71
:1007700023F007037B600E4A7B6813600C4B00225A
:100780005A600C4B42F2F8725A600A4B00221A600F
:100790007B683B603B6842F2F8725A603B68054AEE
:1007A0001A6000BF0C37BD4680BC70474000002077
:1007B000382800204028002080B483B000AF786043
:1007C0007B6803F108027B685A607B684FF0FF3258
:1007D0009A607B6803F108027B68DA607B6803F14A
:1007E00008027B681A617B6800221A6000BF0C3720
:1007F000BD4680BC704780B483B000AF78607B6832
:1008000000221A6100BF0C37BD4680BC704780B41F
:1008100085B000AF786039607B685B68FB603B68DF
:10082000FA685A60FB689A683B689A60FB689B6844
:100830003A685A60FB683A689A603B687A681A615D
:100840007B681B685A1C7B681A6000BF1437BD4662
:1008500080BC704780B485B000AF786039603B6879
:100860001B68BB60BB68B3F1FF3F03D17B681B69AA
:10087000FB600CE07B680833FB6002E0FB685B68B0
:10088000FB60FB685B681B68BA689A42F6D2FB683B
:100890005A683B685A603B685B683A689A603B6894
:1008A000FA689A60FB683A685A603B687A681A612D
:1008B0007B681B685A1C7B681A6000BF1437BD46F2
:1008C00080BC704780B485B000AF78607B681B69DE
:1008D000FB607B685B687A6892689A607B689B685B
:1008E0007A6852685A60FB685B687A689A4203D1FA
:1008F0007B689A68FB685A607B6800221A61FB6813
:100900001B685A1EFB681A60FB681B681846143780
:10091000BD4680BC7047000080B584B002AF01F0D6
:1009200087FF00F05BF93C4B04229A613B4B4FF48C
:100930004C721A60012000F05EFB0346384A1360D7
:1009400000F02AF900F0FAF800F000FE334BDB6803
:10095000324A43F00203D3600021002000F05EFF22
:1009600001223049304800F0EFFF1E21002000F046
:1009700055FF01222B492D4800F0E6FF00F0AAFEAA
:100980004FF000024FF00003C7E900230AE04FF0E8
:100990000002274BD7E90001FFF7E0FB02460B46B8
:1009A000C7E900231AA3D3E90023D7E90001FFF721
:1009B000EBFD0346002BEAD100F0EBFF184B1B6860
:1009C000002B24D0144B04229A61144B4FF44C7228
:1009D0001A60124BDB68114A43F00203D360002314
:1009E00001930323009300234FF496721149124898
:1009F00001F0FBF8002301930323009300234FF43D
:100A000096720E490E4801F0F0F801F039FAFEE74F
:100A100000000000006AF840001002400008014099
:100A20004C28002000000020284100083441000824
:100A30000000F03F3C410008C10A00084C4100089A
:100A4000450A000880B582B000AF7860174B18687F
:100A500000234FF0FF32002100F090FB00F099FFDF
:100A6000134BDB68124A43F00203D36000210020DD
:100A700000F0D4FE01220F490F4800F065FF1E214F
:100A8000002000F0CBFE01220A490C4800F05CFF78
:100A900000F020FE4FF4967001F0CEF9034B186879
:100AA00000230022002100F0BFFACFE74C280020ED
:100AB0000008014000000020584100086041000883
:100AC00080B582B000AF7860174B186800234FF0F4
:100AD000FF32002100F052FB00F05BFF134BDB689C
:100AE000124A23F00203D3600021002000F096FE9A
:100AF00001220F490F4800F027FF1E21002000F0BF
:100B00008DFE01220A490C4800F01EFF00F0E2FDB4
:100B1000642001F091F9044B1868002300220021A1
:100B200000F082FAFEE700BF4C28002000080140D8
:100B3000000000206C4100087441000880B500AF3F
:100B4000124B134A1A60114B124A5A600F4B002283
:100B50009A600E4B0022DA600C4B4FF480421A610F
:100B60000A4B00225A61094B00229A61074B00226E
:100B7000DA61064B00221A62044802F011F90346BA
:100B8000002B01D000F065F800BF80BD5028002088
:100B900000540040801A060080B483B000AF0E4BB2
:100BA0009B690D4A43F0040393610B4B9B6903F06F
:100BB00004037B607B68084B9B69074A43F008038A
:100BC0009361054B9B6903F008033B603B6800BFE2
:100BD0000C37BD4680BC70470010024080B590B015
:100BE00000AF07F1180328220021184603F056FA37
:100BF0003B1D00221A605A609A60DA601A61022373
:100C0000BB610123BB621023FB6200237B6307F1FE
:100C10001803184602F03CFE0346002B01D000F0FA
:100C200018F80F237B600023BB600023FB600023C8
:100C30003B6100237B613B1D0021184603F0AAF8AD
:100C40000346002B01D000F004F800BF4037BD463A
:100C500080BD80B400AF72B600BFFEE780B485B03F
:100C600000AFF860B9607A60FB68043BFB60FB682A
:100C70004FF080721A60FB68043BFB60BB6823F096
:100C80000102FB681A60FB68043BFB60084AFB68D2
:100C90001A60FB68143BFB607A68FB681A60FB68AB
:100CA000203BFB60FB6818461437BD4680BC70478C
:100CB000B50C000880B483B000AF4FF0BF0383F3DE
:100CC0001188BFF36F8FBFF34F8F7B6000BFFEE7CC
:100CD000074B19680868B0E8F00F80F30988BFF384
:100CE0006F8F4FF0000080F311884EF00D0E7047AB
:100CF000AC2C002000BF00BF06480068006880F3ED
:100D0000088862B661B6BFF34F8FBFF36F8F00DF05
:100D100000BF00BF08ED00E080B500AF0B4B1B68C3
:100D20000A4A43F47F031360084B1B68074A43F0E9
:100D30007F43136000F08AF8054B00221A60FFF72A
:100D4000DBFFFFF7B7FF0023184680BD20ED00E072
:100D50000C00002080B483B000AF4FF0BF0383F3DA
:100D60001188BFF36F8FBFF34F8F7B6000BF054BC0
:100D70001B680133034A136000BF0C37BD4680BCBB
:100D8000704700BF0C00002080B483B000AF0A4B56
:100D90001B68013B084A1360074B1B68002B05D1F9
:100DA00000237B607B6883F3118800BF00BF0C3792
:100DB000BD4680BC704700BF0C0000200000000052
:100DC000EFF30980BFF36F8F0D4B1A6820E9F00F26
:100DD00010602DE908404FF0BF0080F3118801F04A
:100DE000CFF94FF0000080F31188BDE80840196882
:100DF0000868B0E8F00F80F30988BFF36F8F704781
:100E0000AC2C002000BF00BF80B582B000AF4FF017
:100E1000BF0383F31188BFF36F8FBFF34F8F7B60E6
:100E200000BF01F001F90346002B03D0064B4FF041
:100E300080521A6000233B603B6883F3118800BF37
:100E400000BF0837BD4680BD04ED00E080B400AFB0
:100E5000054B41F63F721A60044B07221A6000BF2F
:100E6000BD4680BC704700BF14E000E010E000E029
:100E700080B584B000AF786039607B68FB60FFF7B5
:100E800069FFFB681A68FB68DB6BF968096C01FB9A
:100E900003F31A44FB685A60FB6800229A63FB68FC
:100EA0001A68FB689A60FB681A68FB68DB6B013B99
:100EB000F968096C01FB03F31A44FB68DA60FB680C
:100EC000FF2283F84420FB68FF2283F845203B681B
:100ED000002B14D1FB681B69002B1AD0FB68103360
:100EE000184601F0A9F90346002B12D00C4B4FF025
:100EF00080521A60BFF34F8FBFF36F8F09E0FB681A
:100F000010331846FFF758FCFB6824331846FFF7E8
:100F100053FCFFF739FF012318461037BD4680BD4B
:100F200004ED00E080B58AB002AFF860B960134606
:100F3000FB71BB68002B02D10023FB6104E0FB685E
:100F4000BA6802FB03F3FB61FB6950331846FFF7F5
:100F500043FBB861BB69002B0BD0BB6950337B618D
:100F6000FA79BB69009313467A69B968F86800F0AA
:100F700005F8BB6918462037BD4680BD80B584B0F2
:100F800000AFF860B9607A60FB70BB68002B03D1DA
:100F9000BB69BA691A6002E0BB697A681A60BB690A
:100FA000FA68DA63BB69BA681A640121B869FFF7A5
:100FB0005FFFBB69FA7883F84C2000BF1037BD464D
:100FC00080BD80B582B000AF78607B68002B0ED00A
:100FD0007B6800225A607B6800221A607B680022CE
:100FE000DA60002300220021786800F01DF800BFBD
:100FF0000837BD4680BD80B586B000AF0346FB71A3
:1010000001237B6100233B61FB791A4639697869CA
:10101000FFF788FFF860F868FFF7D3FFFB68184612
:101020001837BD4680BD000080B58AB000AFF860BB
:10103000B9607A603B6000237B62FB683B62FFF72C
:1010400089FE3B6A9A6B3B6ADB6B9A4202D33B6830
:10105000022B29D13A68B968386A00F067F9F8615B
:101060003B6A5B6A002B10D03B6A2433184601F0C0
:10107000E3F80346002B13D03F4B4FF080521A6029
:10108000BFF34F8FBFF36F8F0AE0FB69002B07D0D0
:10109000394B4FF080521A60BFF34F8FBFF36F8F01
:1010A000FFF772FE012363E07B68002B03D1FFF79B
:1010B0006BFE00235CE07B6A002B06D107F1140372
:1010C000184601F00DF901237B62FFF75DFE00F089
:1010D0000FFFFFF73FFE3B6A93F844305BB2B3F17A
:1010E000FF3F03D13B6A002283F844203B6A93F818
:1010F00045305BB2B3F1FF3F03D13B6A002283F876
:101100004520FFF741FE3A1D07F11403114618462A
:1011100001F0FCF80346002B24D1386A00F0FEF9F8
:101120000346002B18D03B6A10337A6811461846E4
:1011300001F06CF8386A00F089F900F0E7FE034628
:10114000002B7FF47CAF0C4B4FF080521A60BFF342
:101150004F8FBFF36F8F72E7386A00F077F900F0B6
:10116000D5FE6CE7386A00F071F900F0CFFE00237D
:1011700018462837BD4680BD04ED00E080B58AB032
:1011800000AFF860B9607A603B6000237B62FB6867
:101190003B62FFF7DFFD3B6A9B6BFB61FB69002B4A
:1011A00046D03B6ADB68BB61B968386A00F028F951
:1011B0003B68002B21D1FB695A1E3B6A9A633B6A4C
:1011C0001B68002B04D101F093FA02463B6A5A6077
:1011D0003B6A1B69002B27D03B6A1033184601F08D
:1011E0002BF80346002B1FD04F4B4FF080521A6054
:1011F000BFF34F8FBFF36F8F16E03B6ABA69DA60B7
:101200003B6A5B6A002B0FD03B6A2433184601F01F
:1012100013F80346002B07D0434B4FF080521A605F
:10122000BFF34F8FBFF36F8FFFF7AEFD012377E062
:101230007B68002B03D1FFF7A7FD002370E07B6ADA
:10124000002B06D107F11003184601F049F80123DD
:101250007B62FFF799FD00F04BFEFFF77BFD3B6AD9
:1012600093F844305BB2B3F1FF3F03D13B6A0022F5
:1012700083F844203B6A93F845305BB2B3F1FF3FFB
:1012800003D13B6A002283F84520FFF77DFD3A1D1C
:1012900007F110031146184601F038F80346002BF9
:1012A00031D1386A00F024F90346002B25D03B6A7F
:1012B0001B68002B08D1FFF74DFD3B6A5B681846A1
:1012C00001F03CF9FFF760FD3B6A24337A68114670
:1012D000184600F09BFF386A00F0B8F800F016FEE0
:1012E0000346002B7FF455AF0F4B4FF080521A602E
:1012F000BFF34F8FBFF36F8F4BE7386A00F0A6F84C
:1013000000F004FE45E7386A00F0A0F800F0FEFDAA
:10131000386A00F0EDF80346002B3FF43AAF0023A3
:1013200018462837BD4680BD04ED00E080B586B084
:1013300000AFF860B9607A6000237B61FB689B6B4B
:101340003B61FB681B6C002B0DD1FB681B68002BFD
:101350004DD1FB685B68184601F066F97861FB685F
:1013600000225A6043E07B68002B19D1FB68986823
:10137000FB681B6C1A46B96802F0BCFEFB689A68F1
:10138000FB681B6C1A44FB689A60FB689A68FB68F0
:101390005B689A422BD3FB681A68FB689A6026E068
:1013A000FB68D868FB681B6C1A46B96802F0A2FE9D
:1013B000FB68DA68FB681B6C5B421A44FB68DA6006
:1013C000FB68DA68FB681B689A4207D2FB685A68B8
:1013D000FB681B6C5B421A44FB68DA607B68022B7B
:1013E00005D13B69002B02D03B69013B3B613B6966
:1013F0005A1CFB689A637B6918461837BD4680BD46
:1014000080B582B000AF786039607B681B6C002BC0
:1014100018D07B68DA687B681B6C1A447B68DA60DA
:101420007B68DA687B685B689A4203D37B681A68DA
:101430007B68DA607B68D9687B681B6C1A46386801
:1014400002F058FE00BF0837BD4680BD80B584B0AD
:1014500000AF7860FFF77EFC7B6893F84530FB7344
:1014600011E07B685B6A002B12D07B68243318463E
:1014700000F0E2FE0346002B01D000F08BFFFB7B67
:10148000013BDBB2FB7397F90F30002BE9DC00E086
:1014900000BF7B68FF2283F84520FFF775FCFFF74C
:1014A00059FC7B6893F84430BB7311E07B681B697F
:1014B000002B12D07B681033184600F0BDFE0346A7
:1014C000002B01D000F066FFBB7B013BDBB2BB739E
:1014D00097F90E30002BE9DC00E000BF7B68FF22AB
:1014E00083F84420FFF750FC00BF1037BD4680BD95
:1014F00080B584B000AF7860FFF72CFC7B689B6BF5
:10150000002B02D10123FB6001E00023FB60FFF709
:101510003BFCFB6818461037BD4680BD80B584B0E3
:1015200000AF7860FFF716FC7B689A6B7B68DB6B1B
:101530009A4202D10123FB6001E00023FB60FFF728
:1015400023FCFB6818461037BD4680BD80B582B0CD
:1015500000AF00F027FA44F62063012278215B48AF
:1015600001F060FE0346002B01D00023A9E040F605
:10157000C4137B6002E07B68013B7B607B68002BCF
:10158000F9D1AE220021782000F086FA2022002135
:10159000782000F081FA10220021782000F07CFAF7
:1015A000B0220021782000F077FAC82200217820AC
:1015B00000F072FA00220021782000F06DFA10226B
:1015C0000021782000F068FA40220021782000F005
:1015D00063FA81220021782000F05EFAFF220021C8
:1015E000782000F059FAA1220021782000F054FA66
:1015F000A6220021782000F04FFAA82200217820AE
:1016000000F04AFA3F220021782000F045FAA42297
:101610000021782000F040FAD3220021782000F049
:101620003BFA00220021782000F036FAD522002172
:10163000782000F031FAF0220021782000F02CFA16
:10164000D9220021782000F027FA222200217820D8
:1016500000F022FADA220021782000F01DFA12228E
:101660000021782000F018FADB220021782000F019
:1016700013FA20220021782000F00EFA8D2200219A
:10168000782000F009FA14220021782000F004FAF2
:10169000AF220021782000F0FFF92E2200217820CF
:1016A00000F0FAF9002000F043F800F013F8084BBE
:1016B00000221A80064B00225A80054B01225A71E3
:1016C000012318460837BD4680BD00BF50280020C2
:1016D000A42C002080B582B000AF0023FB711DE078
:1016E000FB79503BDBB21A460021782000F0D4F998
:1016F00000220021782000F0CFF91022002178206C
:1017000000F0CAF9FB79DB01084A1A448023402122
:10171000782000F05BF9FB790133FB71FB79072B33
:10172000DED900BF00BF0837BD4680BDA428002019
:1017300080B582B000AF0346FB71FB79002B01D16D
:10174000002300E0FF234FF480621946034802F0B3
:10175000A5FC00BF0837BD4680BD00BFA4280020FF
:1017600080B483B000AF0346FB800B46BB801346BA
:10177000FB70FB887F2B48D8BB883F2B45D8254B77
:101780001B79002B06D0FB78002B0CBF0123002314
:10179000DBB2FB70FB78012B1AD1FA88BB88DB081F
:1017A00098B20346DB0113441B4AD35C5AB2BB8890
:1017B00003F00703012101FA03F35BB2134359B2AB
:1017C000FA880346DB011344C9B2134AD1541DE021
:1017D000FA88BB88DB0898B20346DB0113440E4A43
:1017E000D35C5AB2BB8803F00703012101FA03F36B
:1017F0005BB2DB435BB2134059B2FA880346DB01AC
:101800001344C9B2044AD15400E000BF0C37BD46AE
:1018100080BC7047A42C0020A428002080B483B092
:1018200000AF03460A46FB801346BB80054AFB888F
:101830001380044ABB88538000BF0C37BD4680BC70
:10184000704700BFA42C002080B586B000AF0346CF
:101850003960FB711346BB713A4B1B881A463B68D3
:101860001B7813447F2B07DC364B5B881A463B689A
:101870005B7813443F2B01DD00235EE000237B6196
:101880004BE03B685A68FB79203B3968497801FB9B
:1018900003F319467B690B445B0013441B88FB6010
:1018A00000233B6130E0FA683B6902FA03F303F47A
:1018B0000043002B10D0234B1A883B699BB2134482
:1018C00098B2204B5A887B699BB213449BB2BA7979
:1018D0001946FFF745FF14E01A4B1A883B699BB283
:1018E000134498B2174B5A887B699BB2134499B240
:1018F000BB79002B0CBF01230023DBB21A46FFF794
:101900002FFF3B6901333B613B681B781A463B69FB
:101910009342C8D37B6901337B613B685B781A468D
:101920007B699342ADD3074B1A883B681B789BB207
:1019300013449AB2034B1A80FB7918461837BD46F8
:1019400080BD00BFA42C002080B584B000AFF8603B
:10195000B9601346FB7112E0FB681B78FA79B9682D
:101960001846FFF771FF03461A46FB681B789A4238
:1019700002D0FB681B7808E0FB680133FB60FB6862
:101980001B78002BE8D1FB681B7818461037BD4642
:1019900080BD80B500AF0020FFF7CAFEFFF79AFEBA
:1019A00000BF80BD80B483B000AF074B7B6002E016
:1019B0007B68013B7B607B68002BF9D100BF00BFD7
:1019C0000C37BD4680BC704790D0030090B5C7B0BF
:1019D00002AF0446084607F58871A1F588710A60D0
:1019E000194607F58873A3F2091322461A7007F502
:1019F0008873A3F5857302461A7007F58873A3F5FB
:101A000086730A461A8007F58873A3F5827307F573
:101A10008872A2F5857212781A70002387F80F3148
:101A200015E097F80F3107F58872A2F588721268F1
:101A30001A4497F80F310133117807F58872A2F52F
:101A40008272D15497F80F31013387F80F3197F82C
:101A50000F319BB207F58872A2F5867212889A42FE
:101A6000DFD807F58873A3F209131B7899B207F53D
:101A70008873A3F586731B8801339BB207F10C02B0
:101A80000A200090034801F0CFFA00BF07F58A77DB
:101A9000BD4690BD5028002080B586B002AF0346F9
:101AA000FB710B46BB7113467B71BB793B737B7932
:101AB0007B73FB7999B207F10C020A23009302238E
:101AC000034801F0B1FA00BF1037BD4680BD00BF2A
:101AD0005028002080B485B000AF154B9B69144A94
:101AE00043F001039361124B9B6903F00103BB6058
:101AF000BB680F4BDB690E4A43F08053D3610C4B3C
:101B0000DB6903F080537B607B680A4B5B68FB609A
:101B1000FB6823F0E063FB60FB6843F00073FB604D
:101B2000044AFB68536000BF1437BD4680BC704751
:101B3000001002400000014080B588B000AF78601E
:101B400007F1100300221A605A609A60DA607B681D
:101B50001B68154A934223D1144B9B69134A43F0E7
:101B600008039361114B9B6903F00803FB60FB685A
:101B7000C0233B6112237B610323FB6107F1100348
:101B800019460B4800F088FF084BDB69074A43F40D
:101B90000013D361054BDB6903F40013BB60BB6822
:101BA00000BF2037BD4680BD0054004000100240F9
:101BB000000C014080B400AFFEE780B400AFFEE748
:101BC00080B400AFFEE780B400AFFEE780B400AFA2
:101BD000FEE780B400AF00BFBD4680BC704780B454
:101BE00000AF00BFBD4680BC704780B58CB004AF6D
:101BF000F860B9603B601346FB80FB889B00184689
:101C0000FEF7EAFC78617B69002B0ED05C20FEF7C2
:101C1000E3FCF861FB69002B03D0FB697A691A6366
:101C200005E07869FEF766FD01E00023FB61FB69D2
:101C3000002B13D0FA8800230393FB690293FB6AFD
:101C40000193BB6A00933B68B968F86800F00EF82E
:101C5000F86900F083F80123BB6102E04FF0FF3325
:101C6000BB61BB6918462037BD4680BD80B586B0D4
:101C700000AFF860B9607A603B60BB6A186B7B6844
:101C80009B001A46A52102F009FABB6A1A6B7B6811
:101C900003F18043013B9B0013443B613B6923F00C
:101CA00007033B6100237B6112E0BA687B69134440
:101CB0001978BA6A7B69134434330A461A70BA68D1
:101CC0007B6913441B78002B06D07B6901337B6151
:101CD0007B690F2BE9D900E000BFBB6A002283F8C3
:101CE00043203B6A052B01D905233B62BB6A3A6A54
:101CF000DA62BB6A3A6ADA64BB6A00221A65BB6AB6
:101D000004331846FEF777FDBB6A18331846FEF712
:101D100072FDBB6ABA6A1A613B6AC3F10602BB6A0A
:101D20009A61BB6ABA6A5A62BB6A00225A65BB6A88
:101D3000002283F858203A68F9683869FEF78EFF68
:101D40000246BB6A1A607B6A002B02D07B6ABA6AC1
:101D50001A6000BF1837BD4680BD000080B582B054
:101D600000AF7860FEF7F6FF2C4B1B6801332B4A5F
:101D700013602B4B1B68002B09D1294A7B68136029
:101D8000264B1B68012B10D100F028FB0DE0254BE2
:101D90001B68002B09D1224B1B68DA6A7B68DB6A5F
:101DA0009A4202D81E4A7B6813601F4B1B6801339E
:101DB0001D4A13601C4B1A687B685A647B68DB6A97
:101DC00001229A40194B1B681343184A13607B6821
:101DD000DA6A13469B0013449B00154A1A447B6839
:101DE000043319461046FEF712FDFEF7CDFF0D4BEA
:101DF0001B68002B0ED00A4B1B68DA6A7B68DB6A13
:101E00009A4207D20B4B4FF080521A60BFF34F8FAC
:101E1000BFF36F8F00BF0837BD4680BD982D0020EF
:101E2000AC2C0020A42D0020B42D0020A02D0020DB
:101E3000B02C002004ED00E080B584B000AF7860E5
:101E40000023FB607B68002B08D000F051F80021D4
:101E5000786800F061FC00F059F8F860FB68002B2E
:101E600007D1064B4FF080521A60BFF34F8FBFF37C
:101E70006F8F00BF1037BD4680BD00BF04ED00E08E
:101E800080B584B002AF144B01930023009300236C
:101E90004FF4967211491248FFF7A7FE78607B68ED
:101EA000012B15D14FF0BF0383F31188BFF36F8F60
:101EB000BFF34F8F3B6000BF0A4B4FF0FF321A60F9
:101EC000094B01221A60094B00221A60FEF724FF19
:101ED00000BF0837BD4680BDBC2D00207C410008F6
:101EE000AD230008B82D0020A42D00209C2D00203B
:101EF00080B400AF044B1B680133034A136000BF7A
:101F0000BD4680BC704700BFC02D002080B584B0A6
:101F100000AF0023FB600023BB60FEF71BFF394BC3
:101F20001B68013B374A1360364B1B68002B61D19D
:101F3000354B1B68002B5DD02EE0344BDB68DB6833
:101F4000FB60FB6818331846FEF7BCFCFB680433E3
:101F50001846FEF7B7FCFB68DB6A01229A402C4B5F
:101F60001B6813432A4A1360FB68DA6A13469B0016
:101F700013449B00274A1A44FB6804331946104651
:101F8000FEF745FCFB68DA6A234B1B68DB6A9A4262
:101F900002D3224B01221A601C4B1B68002BCCD1B0
:101FA000FB68002B01D000F0A5FA1D4B1B687B607D
:101FB0007B68002B10D000F037F80346002B02D0CE
:101FC000164B01221A607B68013B7B607B68002B0B
:101FD000F1D1134B00221A60104B1B68002B09D063
:101FE0000123BB600F4B4FF080521A60BFF34F8F3D
:101FF000BFF36F8FFEF7C8FEBB6818461037BD46AB
:1020000080BD00BFC02D0020982D0020582D00203D
:10201000A02D0020B02C0020AC2C0020AC2D0020E6
:10202000A82D002004ED00E080B586B000AF0023AD
:102030007B61484B1B68002B7CD1474B1B680133ED
:102040003B61454A3B6913603B69002B10D1434B10
:102050001B68FB60424B1B68404A1360404AFB68A8
:102060001360404B1B6801333E4A136000F042FA94
:102070003D4B1B683A699A424DD3384B1B681B682D
:10208000002B01D1012300E00023002B04D0364BAC
:102090004FF0FF321A603EE0304B1B68DB68DB68B4
:1020A000BB60BB685B687B603A697B689A4203D21D
:1020B0002D4A7B6813602EE0BB6804331846FEF798
:1020C00001FCBB689B6A002B04D0BB681833184620
:1020D000FEF7F8FBBB68DB6A01229A40234B1B68C2
:1020E0001343224A1360BB68DA6A13469B00134409
:1020F0009B001F4A1A44BB68043319461046FEF77A
:1021000086FBBB68DA6A1B4B1B68DB6A9A42B4D356
:1021100001237B61B1E7174B1B68DA6A1449134648
:102120009B0013449B000B441B68012B07D9012320
:102130007B6104E0104B1B6801330F4A13600F4BA7
:102140001B68002B01D001237B617B69184618377F
:10215000BD4680BDC02D00209C2D0020502D0020AC
:10216000542D0020B02D0020B82D0020A02D0020DF
:10217000B02C0020AC2C0020A82D0020AC2D00207D
:1021800080B485B000AF1C4B1B68002B03D01B4BE9
:1021900001221A602AE0194B00221A60184B1B68B2
:1021A0007B607B68B3FA83F3FB70FB78C3F11F039A
:1021B000FB60FA6813469B0013449B00114A1344CA
:1021C000BB60BB685B685A68BB685A60BB685A688A
:1021D000BB6808339A4204D1BB685B685A68BB6825
:1021E0005A60BB685B68DB68074A136000BF14373E
:1021F000BD4680BC704700BFC02D0020AC2D002024
:10220000A02D0020B02C0020AC2C002080B582B086
:1022100000AF78603960074B1B681833194678683F
:10222000FEF718FB0121386800F076FA00BF083786
:10223000BD4680BDAC2C002080B584B000AF786076
:102240007B68DB68DB68BB60BB6818331846FEF749
:1022500039FB1D4B1B68002B1CD1BB68043318468F
:10226000FEF730FBBB68DB6A01229A40174B1B6804
:102270001343164A1360BB68DA6A13469B00134483
:102280009B00134A1A44BB68043319461046FEF7F4
:10229000BEFA05E0BB68183319460E48FEF7B7FAD8
:1022A000BB68DA6A0C4B1B68DB6A9A4205D90123CA
:1022B000FB600A4B01221A6001E00023FB60FB680F
:1022C00018461037BD4680BDC02D0020A02D00202F
:1022D000B02C0020582D0020AC2C0020AC2D00206C
:1022E00080B483B000AF7860064B1A687B681A60D0
:1022F000054B1A687B685A6000BF0C37BD4680BC2E
:10230000704700BFB02D00209C2D002080B584B008
:1023100000AF78603960FEF71DFD1C4B1B68BB6089
:102320003B681B68B3F1FF3F02D10023FB6026E04E
:102330007B681A68164B1B689A4207D07B685B68FB
:10234000BA689A4202D30123FB6018E07B685B689D
:10235000BA68D21A3B681B689A420ED23B681A6868
:102360007B685968BB68CB1A1A443B681A60786866
:10237000FFF7B6FF0023FB6001E00123FB60FEF7DF
:1023800003FDFB6818461037BD4680BD9C2D00201C
:10239000B02D002080B400AF034B01221A6000BFB3
:1023A000BD4680BC704700BFAC2D002080B582B018
:1023B00000AF786000F052F8064B1B68012BF9D98A
:1023C000054B4FF080521A60BFF34F8FBFF36F8FF2
:1023D000F0E700BFB02C002004ED00E080B582B033
:1023E00000AF00237B600CE07A6813469B00134427
:1023F0009B00124A13441846FEF7DEF97B6801334E
:102400007B607B68052BEFD90D48FEF7D5F90D48A9
:10241000FEF7D2F90C48FEF7CFF90C48FEF7CCF9DD
:102420000B48FEF7C9F90B4B054A1A600A4B054ADF
:102430001A6000BF0837BD4680BD00BFB02C002029
:10244000282D00203C2D0020582D00206C2D002030
:10245000842D0020502D0020542D002080B582B006
:1024600000AF28E0FFF744FD174B1B68002B0CBFA3
:1024700001230023DBB27B60FFF748FD7B68002B64
:1024800019D1FEF767FC104BDB68DB683B603B68EB
:1024900004331846FEF716FA0C4B1B68013B0B4A37
:1024A00013600B4B1B68013B094A1360FEF76CFC81
:1024B000386800F00FF8064B1B68002BD2D100BF24
:1024C00000BF0837BD4680BD6C2D0020982D002030
:1024D000802D002080B582B000AF78607B681B6BD8
:1024E0001846FEF707F97868FEF704F900BF0837C9
:1024F000BD4680BD80B483B000AF0E4B1B681B6827
:10250000002B01D1012300E00023002B04D00A4B53
:102510004FF0FF321A6008E0064B1B68DB68DB688F
:102520007B607B685B68044A136000BF0C37BD4664
:1025300080BC7047502D0020B82D002080B584B09D
:1025400000AF78607B68FB607B68002B62D0FB6823
:10255000DA6A324B1B68DB6A9A425BD2FB689B6982
:10256000002B06DB2D4B1B68DB6AC3F10602FB6800
:102570009A61FB685969FB68DA6A13469B00134449
:102580009B00274A1344994201D1012300E0002314
:10259000002B3AD0FB6804331846FEF793F9034644
:1025A000002B15D1FB68DA6A1D4913469B001344C2
:1025B0009B000B441B68002B0AD1FB68DB6A0122DD
:1025C00002FA03F3DA43174B1B681340154A1360F2
:1025D000124B1B68DA6AFB68DA62FB68DB6A01226D
:1025E0009A40104B1B6813430E4A1360FB68DA6A6B
:1025F00013469B0013449B00094A1A44FB680433AA
:1026000019461046FEF703F904E0044B1B68DA6A2A
:10261000FB68DA6200BF1037BD4680BDAC2C0020DD
:10262000B02C0020A02D002080B584B000AF7860D1
:102630007B68BB600023FB607B68002B4FD0BB68CE
:102640001B6D5A1EBB681A65BB68DA6ABB68DB6C17
:102650009A4244D0BB681B6D002B40D1BB68043349
:102660001846FEF72FF90346002B15D1BB68DA6A2E
:102670001D4913469B0013449B000B441B68002B11
:102680000AD1BB68DB6A012202FA03F3DA43174B73
:102690001B681340154A1360BB68DA6CBB68DA62CA
:1026A000BB68DB6AC3F10602BB689A61BB68DB6A80
:1026B00001229A400D4B1B6813430C4A1360BB6800
:1026C000DA6A13469B0013449B00074A1A44BB680E
:1026D000043319461046FEF79AF80123FB60FB68A5
:1026E00018461037BD4680BDB02C0020A02D00201C
:1026F00080B400AF074B1B68002B04D0054B1B6850
:102700001A6D01321A65034B1B681846BD4680BC22
:10271000704700BFAC2C002080B584B000AF78605B
:102720003960294B1B68FB60284B1B680433184633
:10273000FEF7C8F80346002B0BD1244B1B68DB6A5D
:10274000012202FA03F3DA43214B1B681340204AAB
:1027500013607B68B3F1FF3F0AD13B68002B07D0C1
:102760001A4B1B68043319461A48FEF750F826E046
:10277000FA687B681344BB60144B1B68BA685A60E4
:10278000BA68FB689A4209D2134B1A680F4B1B6850
:10279000043319461046FEF75DF810E00F4B1A6837
:1027A0000A4B1B68043319461046FEF753F80C4BCE
:1027B0001B68BA689A4202D2094ABB68136000BF1C
:1027C0001037BD4680BD00BF9C2D0020AC2C0020E2
:1027D000A02D0020842D0020542D0020502D0020FD
:1027E000B82D00200C480D490D4A002302E0D458B2
:1027F000C4500433C4188C42F9D30A4A0A4C00234B
:1028000001E013600432A242FBD3FFF7E8F901F0C4
:102810004DFCFEF781F87047000000201C000020EE
:10282000104F00081C000020C82D0020FEE700000B
:1028300080B500AF084B1B68074A43F010031360D4
:10284000032000F0F5F80F2000F008F8FFF742F938
:102850000023184680BD00BF0020024080B582B032
:1028600000AF7860124B1A68124B1B7819464FF470
:102870007A73B3FBF1F3B2FBF3F3184600F0FFF801
:102880000346002B01D001230EE07B680F2B0AD8F2
:10289000002279684FF0FF3000F0D5F8064A7B68D7
:1028A0001360002300E0012318460837BD4680BDB1
:1028B00010000020180000201400002080B400AF99
:1028C000024B1B681846BD4680BC7047C42D0020D3
:1028D00080B485B000AF78607B6803F00703FB60CD
:1028E0000C4BDB68BB60BA684FF6FF031340BB605C
:1028F000FB681A02BB68134343F0BF6343F4003321
:10290000BB60044ABB68D36000BF1437BD4680BCBF
:10291000704700BF00ED00E080B400AF044BDB68FF
:102920001B0A03F007031846BD4680BC704700BF72
:1029300000ED00E080B483B000AF03463960FB7166
:1029400097F90730002B0ADB3B68DAB20C4997F99C
:1029500007301201D2B20B4483F800230AE03B682F
:10296000DAB20849FB7903F00F03043B1201D2B23B
:102970000B441A7600BF0C37BD4680BC704700BFC1
:1029800000E100E000ED00E080B489B000AFF86045
:10299000B9607A60FB6803F00703FB61FB69C3F170
:1029A0000703042B28BF0423BB61FB690433062BF8
:1029B00002D9FB69033B00E000237B614FF0FF324B
:1029C000BB6902FA03F3DA43BB681A407B699A4099
:1029D0004FF0FF317B6901FA03F3D9437B680B4069
:1029E000134318462437BD4680BC704780B582B07B
:1029F00000AF78607B68013BB3F1807F01D3012396
:102A00000FE00A4A7B68013B53600F214FF0FF3013
:102A1000FFF790FF054B00229A60044B07221A60D3
:102A2000002318460837BD4680BD00BF10E000E017
:102A300080B582B000AF78607868FFF749FF00BFCB
:102A40000837BD4680BD80B586B000AF0346B9608B
:102A50007A60FB7300237B61FFF75EFF78617A6821
:102A6000B9687869FFF790FF024697F90F30114671
:102A70001846FFF75FFF00BF1837BD4680BD80B521
:102A800082B000AF78607868FFF7B0FF0346184661
:102A90000837BD4680BD000080B48BB000AF7860C1
:102AA000396000237B6200233B6269E101227B6A7B
:102AB00002FA03F3FB613B681B68FA691340BB61D0
:102AC000BA69FB699A4240F058813B685B689A4A50
:102AD00093425ED0984A934275D8984A934258D010
:102AE000964A93426FD8964A934252D0944A934260
:102AF00069D8944A93424CD0924A934263D8924AFE
:102B0000934246D0904A93425DD8122B2AD8122B7A
:102B100059D801A252F823F0932B00086D2B00081E
:102B20007F2B0008C12B0008C72B0008C72B00080B
:102B3000C72B0008C72B0008C72B0008C72B0008AD
:102B4000C72B0008C72B0008C72B0008C72B00089D
:102B5000C72B0008C72B0008C72B0008752B0008DF
:102B6000892B0008794A934213D02CE03B68DB683C
:102B70003B6229E03B68DB6804333B6224E03B684E
:102B8000DB6808333B621FE03B68DB680C333B6269
:102B90001AE03B689B68002B02D104233B6213E0E0
:102BA0003B689B68012B05D108233B627B68FA696F
:102BB0001A6109E008233B627B68FA695A6103E005
:102BC00000233B6200E000BFBB69FF2B01D87B689C
:102BD00001E07B6804337B61BB69FF2B02D87B6A11
:102BE0009B0002E07B6A083B9B003B617B691A68A3
:102BF0000F213B6901FA03F3DB431A40396A3B6951
:102C000001FA03F31A437B691A603B685B6803F0BF
:102C10008053002B00F0B1804D4B9B694C4A43F030
:102C2000010393614A4B9B6903F00103BB60BB68DE
:102C3000484A7B6A9B08023352F82330FB607B6A68
:102C400003F003039B000F2202FA03F3DB43FA684D
:102C50001340FB607B68404A934213D07B683F4A35
:102C600093420DD07B683E4A934207D07B683D4A31
:102C7000934201D1032306E0042304E0022302E08F
:102C8000012300E000237A6A02F0030292009340DD
:102C9000FA681343FB602F497B6A9B080233FA688A
:102CA00041F823203B685B6803F48033002B06D097
:102CB0002D4B1A682C49BB6913430B6006E02A4B65
:102CC0001A68BB69DB43284913400B603B685B68AB
:102CD00003F40033002B06D0234B5A682249BB690A
:102CE00013434B6006E0204B5A68BB69DB431E4927
:102CF00013404B603B685B6803F48013002B06D0E5
:102D0000194B9A681849BB6913438B6006E0164B50
:102D10009A68BB69DB43144913408B603B685B686E
:102D200003F40013002B21D00F4BDA680E49BB6966
:102D30001343CB6021E000BF0000321000003110CF
:102D400000002210000021100000121000001110DD
:102D5000001002400000014000080140000C01404A
:102D60000010014000140140000401400B4BDA68E0
:102D7000BB69DB4309491340CB607B6A01337B624B
:102D80003B681A687B6A22FA03F3002B7FF48EAE4D
:102D900000BF00BF2C37BD4680BC70470004014017
:102DA00080B584B000AF78607B68002B01D101232F
:102DB0002BE17B6893F83D30DBB2002B06D17B68BA
:102DC000002283F83C207868FEF7B6FE7B68242258
:102DD00083F83D207B681B681A687B681B6822F0BB
:102DE00001021A607B681B681A687B681B6842F4E2
:102DF00000421A607B681B681A687B681B6822F4B3
:102E000000421A6001F018F9F8607B685B68814A3B
:102E1000934207D8FB68804A934294BF0123002362
:102E2000DBB206E0FB687D4A934294BF0123002396
:102E3000DBB2002B01D00123E7E0FB68784AA2FB5C
:102E400003239B0CBB607B681B685B6823F03F011E
:102E50007B681B68BA680A435A607B681B681B6AF8
:102E600023F03F017B685B686A4A934202D8BB68E3
:102E7000013309E0BB684FF4967202FB03F3694A21
:102E8000A2FB03239B0901337A6812680B43136288
:102E90007B681B68DB6923F44F4222F0FF027B68EA
:102EA0005B685C498B4219D8FB68591E7B685B687C
:102EB0005B00B1FBF3F3591C40F6FC730B40002B95
:102EC0000AD0FB68591E7B685B685B00B1FBF3F3BB
:102ED0000133C3F30B0351E004234FE07B689B688D
:102EE000002B11D1FB68581E7B6859680B465B00AC
:102EF0000B44B0FBF3F30133C3F30B03002B0CBF04
:102F000001230023DBB212E0FB68581E7B6859687E
:102F10000B469B000B4499000B44B0FBF3F30133C9
:102F2000C3F30B03002B0CBF01230023DBB2002BE8
:102F300001D0012322E07B689B68002B0ED1FB6847
:102F4000581E7B6859680B465B000B44B0FBF3F3DB
:102F50000133C3F30B0343F400430FE0FB68581E37
:102F60007B6859680B469B000B4499000B44B0FBEF
:102F7000F3F30133C3F30B0343F440437968096867
:102F80001343CB617B681B681B6823F0C0017B681F
:102F9000DA697B681B6A1A437B681B680A431A60FC
:102FA0007B681B689B6823F4034323F0FF037A6864
:102FB00011697A68D26811437A6812680B4393608A
:102FC0007B681B68DB6823F0FF017B685A697B68BC
:102FD0009B691A437B681B680A43DA607B681B683D
:102FE0001A687B681B6842F001021A607B68002245
:102FF0001A647B68202283F83D207B6800221A63D4
:103000007B68002283F83E20002318461037BD4617
:1030100080BD00BFA08601007F841E00FF083D0028
:1030200083DE1B43D34D621080B588B002AFF860D9
:103030007A601A460B467B8113463B81FFF73EFCC4
:103040007861FB6893F83D30DBB2202B40F0E080E4
:103050007B690093192301227049F86800F092FA05
:103060000346002B01D00223D3E0FB6893F83C30E9
:10307000012B01D10223CCE0FB68012283F83C2024
:10308000FB681B681B6803F00103012B07D0FB687A
:103090001B681A68FB681B6842F001021A60FB6833
:1030A0001B681A68FB681B6822F400621A60FB68E0
:1030B000212283F83D20FB68102283F83E20FB6824
:1030C00000221A64FB687A685A62FB683A895A855A
:1030D000FB685B8D9AB2FB681A85FB68504ADA621E
:1030E00079897B693A6AF86800F0CAF90346002BCF
:1030F00001D001238DE000233B61FB681B685B6905
:103100003B61FB681B689B693B613B6966E07A69D0
:10311000396AF86800F00CFB0346002B0DD0FB6801
:103120001B6C042B07D1FB681B681A68FB681B68C3
:1031300042F400721A6001236BE0FB685B6A1A7844
:10314000FB681B681A61FB685B6A5A1CFB685A6261
:10315000FB685B8D9BB2013B9AB2FB685A85FB68AA
:103160001B8D013B9AB2FB681A85FB681B685B6983
:1031700003F00403042B1BD1FB681B8D002B17D01D
:10318000FB685B6A1A78FB681B681A61FB685B6AFC
:103190005A1CFB685A62FB685B8D9BB2013B9AB27A
:1031A000FB685A85FB681B8D013B9AB2FB681A8548
:1031B0007A69396AF86800F0FCFA0346002B0DD0F2
:1031C000FB681B6C042B07D1FB681B681A68FB6843
:1031D0001B6842F400721A6001231AE0FB681B8D21
:1031E000002B94D1FB681B681A68FB681B6842F4CB
:1031F00000721A60FB68202283F83D20FB680022E1
:1032000083F83E20FB68002283F83C20002300E086
:10321000022318461837BD4680BD00BF02001000CB
:103220000000FFFF80B58AB002AFF8607A603B60B3
:103230000B467B81FFF742FBF8610123BB61FB6812
:1032400093F83D30DBB2202B40F01181FB690093F5
:10325000192301228849F86800F094F90346002BED
:1032600001D0022304E1FB6893F83C30012B01D12B
:103270000223FDE0FB68012283F83C20FB681B6809
:103280001B6803F00103012B07D0FB681B681A6859
:10329000FB681B6842F001021A60FB681B681A6831
:1032A000FB681B6822F400621A60FB68242283F822
:1032B0003D20FB6800221A64FB68704ADA62FB68F2
:1032C0001B681A68FB681B6842F480721A60FB690D
:1032D00000933B6800224FF00111F86800F052F9AA
:1032E0000346002B0DD0FB681B681B6803F480733A
:1032F000B3F5807F03D1FB684FF400721A64032397
:10330000B6E07B89DBB21A46FB681B6802F0FE025E
:103310001A61FFF7D3FAF861FB681B685B6903F079
:103320000203022B0CBF01230023DBB2FB75FB68F9
:103330001B685B6903F48063B3F5806F0CBF0123E6
:103340000023DBB2BB7525E0FFF7B8FA0246FB6944
:10335000D31A3A689A4202D33B68002B03D1FB6828
:10336000A02283F83D20FB681B685B6903F0020321
:10337000022B0CBF01230023DBB2FB75FB681B682B
:103380005B6903F48063B3F5806F0CBF01230023F6
:10339000DBB2BB75FB6893F83D30DBB2A02B05D0E8
:1033A000FB7D002B02D1BB7D002BCDD0FB68202202
:1033B00083F83D20FB681B685B6903F00203022B66
:1033C00029D1FB681B681A68FB681B6842F400720D
:1033D0001A6000233B61FB681B685B693B61FB680B
:1033E0001B689B693B613B69FB69009319230122C0
:1033F0002149F86800F0C6F80346002B01D00123EC
:1034000036E0FB68202283F83D20FB68002283F829
:103410003C2000232CE0FB681B681A68FB681B68D3
:1034200042F400721A60FB681B686FF480625A6194
:10343000FB690093192301220F49F86800F0A2F8F4
:103440000346002B01D0012312E0BB690133BB61AD
:10345000BA697B689A42FFF432AFFB68202283F896
:103460003D20FB68002283F83C20012300E002237A
:1034700018462037BD4680BD020010000000FFFF47
:1034800080B588B002AFF8607A603B600B467B8104
:10349000FB68DB6A7B617B69082B06D07B69012BAB
:1034A00003D07B6913F5803F08D1FB681B681A685D
:1034B000FB681B6842F480721A600BE0FB681B6BB0
:1034C000122B07D1FB681B681A68FB681B6842F463
:1034D00080721A603B6800937B6800224FF00111F4
:1034E000F86800F04FF80346002B0DD0FB681B680E
:1034F0001B6803F48073B3F5807F03D1FB684FF43E
:1035000000721A64032335E0FB681B69B3F5804F32
:1035100008D17B89DBB21A46FB681B6802F0FE0209
:103520001A611BE07B89DB11DBB203F00603DBB21F
:1035300063F00F03DAB2FB681B681A613B687A68B4
:103540000E49F86800F075F80346002B01D00123FE
:1035500010E07B89DAB2FB681B681A613B687A6805
:103560000749F86800F065F80346002B01D00123F5
:1035700000E0002318461837BD4680BD0800010052
:103580000200010080B584B000AFF860B9603B6014
:103590001346FB7125E03B68B3F1FF3F21D0FFF7F5
:1035A0008DF90246BB69D31A3A689A4202D33B6846
:1035B000002B16D1FB6800221A63FB68202283F8D7
:1035C0003D20FB68002283F83E20FB681B6C43F023
:1035D0002002FB681A64FB68002283F83C20012368
:1035E00023E0BB681B0CDBB2012B0DD1FB681B6811
:1035F0005B69DA43BB6813409BB2002B0CBF01230D
:103600000023DBB21A460CE0FB681B689B69DA43B7
:10361000BB6813409BB2002B0CBF01230023DBB21D
:103620001A46FB799A42B6D0002318461037BD4699
:1036300080BD80B584B000AFF860B9607A603B604F
:1036400051E0FB681B685B6903F48063B3F5806F2E
:1036500023D1FB681B681A68FB681B6842F4007280
:103660001A60FB681B686FF480625A61FB68002275
:103670001A63FB68202283F83D20FB68002283F850
:103680003E20FB681B6C43F00402FB681A64FB6875
:10369000002283F83C20012346E07B68B3F1FF3F22
:1036A00021D0FFF70BF902463B68D31A7A689A4299
:1036B00002D37B68002B16D1FB6800221A63FB68DB
:1036C000202283F83D20FB68002283F83E20FB681F
:1036D0001B6C43F02002FB681A64FB68002283F82D
:1036E0003C20012320E0BB681B0CDBB2012B0CD17A
:1036F000FB681B685B69DA43BB6813409BB2002B15
:1037000014BF01230023DBB20BE0FB681B689B693D
:10371000DA43BB6813409BB2002B14BF0123002384
:10372000DBB2002B8DD1002318461037BD4680BD7B
:1037300080B584B000AFF860B9607A602DE0F868B9
:1037400000F078F80346002B01D001232DE0BB6880
:10375000B3F1FF3F21D0FFF7B1F802467B68D31ADF
:10376000BA689A4202D3BB68002B16D1FB680022CC
:103770001A63FB68202283F83D20FB68002283F84F
:103780003E20FB681B6C43F02002FB681A64FB6858
:10379000002283F83C20012307E0FB681B685B697B
:1037A00003F08003802BCAD1002318461037BD4692
:1037B00080BD80B584B000AFF860B9607A602DE05C
:1037C000F86800F037F80346002B01D001232DE004
:1037D000BB68B3F1FF3F21D0FFF770F802467B686A
:1037E000D31ABA689A4202D3BB68002B16D1FB6881
:1037F00000221A63FB68202283F83D20FB68002228
:1038000083F83E20FB681B6C43F02002FB681A64BF
:10381000FB68002283F83C20012307E0FB681B685B
:103820005B6903F00403042BCAD100231846103748
:10383000BD4680BD80B483B000AF78607B681B68F4
:103840005B6903F48063B3F5806F1BD17B681B68F1
:103850006FF480625A617B6800221A637B682022C1
:1038600083F83D207B68002283F83E207B681B6C38
:1038700043F004027B681A647B68002283F83C20D2
:10388000012300E0002318460C37BD4680BC70477A
:1038900080B586B000AF78607B68002B01D1012332
:1038A00072E27B681B6803F00103002B00F0878045
:1038B000924B5B6803F00C03042B0CD08F4B5B68BE
:1038C00003F00C03082B12D18C4B5B6803F480339C
:1038D000B3F5803F0BD1894B1B6803F40033002BF9
:1038E0006CD07B685B68002B68D101234CE27B685D
:1038F0005B68B3F5803F06D1804B1B687F4A43F479
:10390000803313602EE07B685B68002B0CD17B4B0F
:103910001B687A4A23F480331360784B1B68774A1C
:1039200023F4802313601DE07B685B68B3F5A02F50
:103930000CD1724B1B68714A43F4802313606F4BA8
:103940001B686E4A43F4803313600BE06B4B1B68BB
:103950006A4A23F480331360684B1B68674A23F478
:10396000802313607B685B68002B13D0FEF7A6FFF3
:10397000386108E0FEF7A2FF02463B69D31A642BC8
:1039800001D9032300E25D4B1B6803F40033002BD5
:10399000F0D014E0FEF792FF386108E0FEF78EFFEA
:1039A00002463B69D31A642B01D90323ECE1534B44
:1039B0001B6803F40033002BF0D100E000BF7B68EC
:1039C0001B6803F00203002B63D04C4B5B6803F0D1
:1039D0000C03002B0BD0494B5B6803F00C03082B46
:1039E0001CD1464B5B6803F48033002B16D1434B4C
:1039F0001B6803F00203002B05D07B681B69012BB9
:103A000001D00123C0E13D4B1B6823F0F8027B6825
:103A10005B69DB00394913430B603AE07B681B6943
:103A2000002B20D0364B01221A60FEF747FF386189
:103A300008E0FEF743FF02463B69D31A022B01D987
:103A40000323A1E12D4B1B6803F00203002BF0D0F0
:103A50002A4B1B6823F0F8027B685B69DB0027496F
:103A600013430B6015E0264B00221A60FEF726FF79
:103A7000386108E0FEF722FF02463B69D31A022BA9
:103A800001D9032380E11D4B1B6803F00203002BC7
:103A9000F0D17B681B6803F00803002B3AD07B68E9
:103AA0009B69002B19D0174B01221A60FEF706FF05
:103AB000386108E0FEF702FF02463B69D31A022B89
:103AC00001D9032360E10D4B5B6A03F00203002B75
:103AD000F0D0012000F0C4FA1CE00A4B00221A606A
:103AE000FEF7ECFE38610FE0FEF7E8FE02463B69A8
:103AF000D31A022B08D9032346E100BF001002406D
:103B00000000424280044242924B5B6A03F002038F
:103B1000002BE9D17B681B6803F00403002B00F045
:103B2000A6800023FB758B4BDB6903F08053002BD1
:103B30000DD1884BDB69874A43F08053D361854BB5
:103B4000DB6903F08053BB60BB680123FB75824BCC
:103B50001B6803F48073002B18D17F4B1B687E4ACF
:103B600043F480731360FEF7A9FE386108E0FEF7A6
:103B7000A5FE02463B69D31A642B01D9032303E156
:103B8000754B1B6803F48073002BF0D07B68DB68F7
:103B9000012B06D16F4B1B6A6E4A43F0010313627F
:103BA0002DE07B68DB68002B0CD16A4B1B6A694AED
:103BB00023F001031362674B1B6A664A23F0040378
:103BC00013621CE07B68DB68052B0CD1614B1B6A20
:103BD000604A43F0040313625E4B1B6A5D4A43F084
:103BE000010313620BE05B4B1B6A5A4A23F001038B
:103BF0001362584B1B6A574A23F0040313627B6815
:103C0000DB68002B15D0FEF759FE38610AE0FEF79D
:103C100055FE02463B69D31A41F28832934201D9DC
:103C20000323B1E04B4B1B6A03F00203002BEED0E1
:103C300014E0FEF743FE38610AE0FEF73FFE02465D
:103C40003B69D31A41F28832934201D903239BE0A6
:103C5000404B1B6A03F00203002BEED1FB7D012BCE
:103C600005D13C4BDB693B4A23F08053D3617B6831
:103C7000DB69002B00F08780364B5B6803F00C0398
:103C8000082B61D07B68DB69022B46D1334B0022C5
:103C90001A60FEF713FE386108E0FEF70FFE0246D9
:103CA0003B69D31A022B01D903236DE0294B1B6812
:103CB00003F00073002BF0D17B681B6AB3F5803FE3
:103CC00008D1244B5B6823F400327B689B68214950
:103CD00013434B601F4B5B6823F474127B68196AB3
:103CE0007B685B6A0B431B4913434B601B4B0122F0
:103CF0001A60FEF7E3FD386108E0FEF7DFFD0246DB
:103D00003B69D31A022B01D903233DE0114B1B68F9
:103D100003F00073002BF0D035E0104B00221A6046
:103D2000FEF7CCFD386108E0FEF7C8FD02463B69AE
:103D3000D31A022B01D9032326E0064B1B6803F09C
:103D40000073002BF0D11EE07B68DB69012B07D1EB
:103D5000012319E000100240007000406000424260
:103D60000B4B5B68FB60FB6803F480327B681B6A6B
:103D70009A4206D1FB6803F470127B685B6A9A4230
:103D800001D0012300E0002318461837BD4680BD4E
:103D90000010024080B584B000AF786039607B6865
:103DA000002B01D10123D0E06A4B1B6803F007030D
:103DB0003A689A4210D9674B1B6823F0070265499D
:103DC0003B6813430B60634B1B6803F007033A68BF
:103DD0009A4201D00123B8E07B681B6803F002031C
:103DE000002B20D07B681B6803F00403002B05D058
:103DF000594B5B68584A43F4E06353607B681B6827
:103E000003F00803002B05D0534B5B68524A43F480
:103E100060535360504B5B6823F0F0027B689B68F3
:103E20004D4913434B607B681B6803F00103002B73
:103E300040D07B685B68012B07D1474B1B6803F4BC
:103E40000033002B15D101237FE07B685B68022BD8
:103E500007D1414B1B6803F00073002B09D10123EC
:103E600073E03D4B1B6803F00203002B01D10123DB
:103E70006BE0394B5B6823F003027B685B68364973
:103E800013434B60FEF71AFDF8600AE0FEF716FDDB
:103E90000246FB68D31A41F28832934201D90323C8
:103EA00053E02D4B5B6803F00C027B685B689B0062
:103EB0009A42EBD1274B1B6803F007033A689A42FA
:103EC00010D2244B1B6823F0070222493B6813439E
:103ED0000B60204B1B6803F007033A689A4201D03D
:103EE000012332E07B681B6803F00403002B08D039
:103EF000194B5B6823F4E0627B68DB681649134367
:103F00004B607B681B6803F00803002B09D0124B41
:103F10005B6823F460527B681B69DB000E49134326
:103F20004B6000F021F802460B4B5B681B0903F065
:103F30000F030A49CB5C22FA03F3094A1360094BC9
:103F40001B681846FEF78AFC002318461037BD464A
:103F500080BD00BF0020024000100240F04E00086B
:103F6000100000201400002090B48AB000AF294B4C
:103F70003C1D0FCB84E80F0040F201233B8000235F
:103F8000FB610023BB6100237B6200237B61002374
:103F90003B62214B5B68FB61FB6903F00C03042B64
:103FA00002D0082B03D02BE01C4B3B622BE0FB69BB
:103FB0009B0C03F00F0328333B4413F8243C7B6134
:103FC000FB6903F48033002B12D0134B5B685B0C4E
:103FD00003F0010328333B4413F8283CBB617B69A1
:103FE0000E4A03FB02F2BB69B2FBF3F37B6204E00F
:103FF0007B690B4A02FB03F37B627B6A3B6202E054
:10400000064B3B6200BF3B6A18462837BD4690BC52
:10401000704700BF844100080010024000127A007F
:1040200000093D0080B400AF024B1B681846BD4636
:1040300080BC70471000002080B500AFFFF7F2FF92
:104040000246054B5B681B0A03F007030349CB5C80
:1040500022FA03F3184680BD00100240004F00080A
:1040600080B485B000AF78600A4B1B680A4AA2FB97
:1040700003235B0A7A6802FB03F3FB6000BFFB6863
:104080005A1EFA60002BF9D100BF00BF1437BD469D
:1040900080BC704710000020D34D621003460244DC
:1040A000934200D1704703F8011BF9E770B5002671
:1040B0000C4D0D4C641BA410A64209D100F028F849
:1040C00000260A4D0A4C641BA410A64205D170BDFF
:1040D00055F8043B98470136EEE755F8043B9847FE
:1040E0000136F2E7084F0008084F0008084F0008A3
:1040F0000C4F00080A44914200F1FF3300D1704791
:1041000010B511F8014B914203F8014FF9D110BDE0
:10411000F8B500BFF8BC08BC9E467047F8B500BFB4
:08412000F8BC08BC9E46704784
:10412800526F626F7469637300000000436F726EB0
:104138006572000054656D7053656E736F725461DB
:10414800736B000057656C636F6D655461736B002A
:104158004D6F68616D656400416264616C6C616893
:104168000000000054656D70000000004953203ABB
:104178002000000049444C450000000002030405EB
:10418800060708090A0B0C0D0E0F1010000000009E
:104198000000000000000000000000000000000017
:1041A8000000000000000000000000000000000007
:1041B8000000000C000C000C000C000C000C000CA3
:1041C800000C000C000C000C0000000C000C00009F
:1041D800000000000000001B001B001B001B001B50
:1041E80000000000000000000000000000000000C7
:1041F80000000000000000000000801980198019EC
:104208008019C07FC07F80190033C07FC07F003312
:104218000033003300330000000000000000001EDF
:10422800003F807580650074003C001E0007800513
:10423800806580658075003F001E00040004000052
:104248000000007000D840D8C0D880D9007300069C
:10425800000C801BC036C066C046C0068003000044
:10426800000000000000001E003F00330033003350
:10427800001E000CC03CC066806380618063C03E45
:10428800801C0000000000000000000C000C000C66
:10429800000C000C000000000000000000000000FE
:1042A8000000000000000000000000008000000185
:1042B8000003000600060004000C000C000C000CB3
:1042C800000C000C0004000600060003000180003A
:1042D800002000100018000C000C00040006000666
:1042E80000060006000600060004000C000C00187A
:1042F800001000200000000C002D003F001E0033BD
:1043080000000000000000000000000000000000A5
:104318000000000000000000000000000000000C89
:10432800000C000C000CC0FFC0FF000C000C000CBF
:10433800000C000000000000000000000000000069
:104348000000000000000000000000000000000065
:10435800000000000000000C000C0004000400082D
:104368000000000000000000000000000000000045
:104378000000001E001E00000000000000000000F9
:104388000000000000000000000000000000000025
:104398000000000000000000000000000000000C09
:1043A800000C0000000000000000000300030003F0
:1043B8000006000600060006000C000C000C000CAD
:1043C8000018001800180000000000000000001E7F
:1043D800003F0033806180618061806D806D806105
:1043E800806180610033003F001E00000000000073
:1043F80000000006000E001E00360026000600061B
:10440800000600060006000600060006000600007A
:10441800000000000000001E003F80738061806182
:10442800800100030006000C001800300060807F47
:10443800807F0000000000000000001C003E0063B8
:1044480000630003000E000E0003800180018061FC
:104458008073003F001E00000000000000000006FE
:10446800000E000E001E001E001600360036006604
:10447800807F807F00060006000600000000000024
:104488000000007F007F006000600060006E007F19
:1044980080638001800180618073003F001E0000FE
:1044A800000000000000001E003F803380610060B3
:1044B800006E007F80738061806180618033003F7F
:1044C800001E0000000000000000807F807F800147
:1044D8000003000300060006000C000C000C000896
:1044E8000018001800180000000000000000001E5E
:1044F800003F8063806180610021001E003F806171
:10450800806180618061003F001E000000000000A3
:104518000000001E003F007380618061806180732D
:10452800803F801D800180610073003F001E0000F5
:104538000000000000000000000000000000000C67
:10454800000C000000000000000000000000000C4B
:10455800000C000000000000000000000000000047
:1045680000000000000C000C00000000000000002B
:104578000000000C000C000400040008000000000B
:104588000000000080008003000E00380060003842
:10459800000E800380000000000000000000000002
:1045A80000000000000000000000807F807F000005
:1045B8000000807F807F00000000000000000000F5
:1045C8000000000000000000000000000040007033
:1045D800001C000780010007001C0070004000005C
:1045E80000000000000000000000001F803FC071B4
:1045F800C060C000C00180030007000E000C000C62
:104608000000000C000C0000000000000000001E6C
:10461800003F803180718063806F806D806D806F16
:10462800806700600032003E001C000000000000AF
:104638000000000E000E001B001B001B001B803139
:104648008031803F803F8031C060C060C060000022
:10465800000000000000007C007E0063006300632F
:104668000063007E007E0063806180618063007F5C
:10467800007E0000000000000000001E003F8031A6
:104688008061006000600060006000600060806120
:104698008031003F001E0000000000000000007C88
:1046A800007F0063806380618061806180618061D8
:1046B800806100630063007E007C00000000000051
:1046C8000000807F807F0060006000600060007FE5
:1046D800007F0060006000600060807F807F0000D5
:1046E800000000000000807F807F006000600060A4
:1046F8000060007F007F0060006000600060006074
:1047080000600000000000000000001E003F803133
:104718008061006000600060806380638061806108
:104728008031803F001E0000000000000000806112
:1047380080618061806180618061807F807F80612D
:1047480080618061806180618061000000000000FC
:104758000000003F003F000C000C000C000C000C97
:10476800000C000C000C000C000C003F003F000087
:1047780000000000000080018001800180018001AC
:104788008001800180018001806180618073003F29
:10479800001E0000000000000000C060806100638F
:1047A80000660066006C0078007C006600660063A6
:1047B80080618061C06000000000000000000060AF
:1047C80000600060006000600060006000600060E1
:1047D800006000600060807F807F000000000000B3
:1047E8000000C071C071C07BC07AC06AC06AC06E68
:1047F800C064C060C060C060C060C060C0600000CD
:1048080000000000000080718071807980798079D3
:10481800806D806D806D806580678067806780634C
:1048280080630000000000000000001E003F00330D
:104838008061806180618061806180618061806168
:104848000033003F001E0000000000000000007E52
:10485800007F80638061806180618063007F007E6B
:104868000060006000600060006000000000000060
:104878000000001E003F003380618061806180611C
:1048880080618061806580670033803F401E000042
:10489800000000000000007E007F8063806180616E
:1048A8008063007F007E0066006300638061806132
:1048B800C0600000000000000000000E001F8031F2
:1048C800803100300038001E00078003806180615D
:1048D8008031003F001E0000000000000000C0FF03
:1048E800C0FF000C000C000C000C000C000C000CAD
:1048F800000C000C000C000C000C00000000000074
:104908000000806180618061806180618061806178
:1049180080618061806180618073003F001E0000BB
:10492800000000000000C060C060C06080318031BD
:104938008031001B001B001B001B000E000E000E28
:1049480000040000000000000000C0C0C0C0C0C0DB
:10495800C0C0C0C0C0CC804C804C805E80528052A9
:104968008073806180610000000000000000C0C00A
:10497800806080610033003B001E000C000C001EAC
:10498800001F003B80718061C0C000000000000073
:104998000000C0C08061806100330033001E001E2B
:1049A800000C000C000C000C000C000C000C0000AB
:1049B800000000000000803F803F800100030003EA
:1049C8000006000C000C0018001800300060807F02
:1049D800807F000000000000000F000F000C000C9A
:1049E800000C000C000C000C000C000C000C000C5F
:1049F800000C000C000C000C000F000F0000001849
:104A080000180018000C000C000C000C0006000632
:104A18000006000600030003000300000000000079
:104A2800001E001E0006000600060006000600061E
:104A3800000600060006000600060006000600063E
:104A4800001E001E0000000C000C001E00120033A7
:104A58000033806180610000000000000000000059
:104A6800000000000000000000000000000000003E
:104A7800000000000000000000000000000000002E
:104A88000000000000000000E0FF00000000003807
:104A98000018000C000000000000000000000000EA
:104AA80000000000000000000000000000000000FE
:104AB80000000000000000000000001F803F80612F
:104AC8008001801F803F80618063807FC038000044
:104AD8000000000000000060006000600060006EE0
:104AE800007F807380618061806180618073007F56
:104AF800006E000000000000000000000000000040
:104B08000000001E003F80738061006000608061CB
:104B18008073003F001E00000000000000008001BC
:104B2800800180018001801D803F807380618061E9
:104B3800806180618073803F801D0000000000005C
:104B480000000000000000000000001E003F00738D
:104B58008061807F807F00608071003F001E0000C0
:104B6800000000000000C007C00F000C000C807F90
:104B7800807F000C000C000C000C000C000C000CDA
:104B8800000C000000000000000000000000000011
:104B9800801D803F80738061806180618061807347
:104BA800803F801D80018063007F003E0000006020
:104BB800006000600060006F807F807180618061AC
:104BC8008061806180618061806100000000000078
:104BD80000000006000600000000003E003E00063F
:104BE8000006000600060006000600060006000093
:104BF800000000000006000600000000003E003E25
:104C0800000600060006000600060006000600066C
:104C180000060046007E003C000000600060006066
:104C28000060806100630066006C007C00760063B1
:104C380000638061C0600000000000000000003ECA
:104C4800003E0006000600060006000600060006F4
:104C5800000600060006000600060000000000002E
:104C68000000000000000000000080DDC0FFC0CE92
:104C7800C0CCC0CCC0CCC0CCC0CCC0CCC0CC000058
:104C88000000000000000000000000000000006FAD
:104C9800807F8071806180618061806180618061D6
:104CA800806100000000000000000000000000001B
:104CB8000000001E003F8073806180618061806118
:104CC8008073003F001E000000000000000000008C
:104CD80000000000006E007F807380618061806149
:104CE80080618073007F006E00600060006000607B
:104CF8000000000000000000801D803F807380617C
:104D08008061806180618073803F801D80018001A7
:104D18008001800100000000000000000000006722
:104D2800803F003900300030003000300030003063
:104D3800003000000000000000000000000000003B
:104D48000000001E803F80610060007F803F80017E
:104D58008061007F001E00000000000000000000CD
:104D6800000800180018007F007F001800180018BD
:104D7800001800180018801F800F000000000000B5
:104D88000000000000000000000080618061806178
:104D980080618061806180618063807F803D0000E8
:104DA8000000000000000000000000000000C060DB
:104DB800803180318031001B001B001B000E000E6B
:104DC80000060000000000000000000000000000D5
:104DD800000080DD80DD80DD00550055005500773E
:104DE8000077002200220000000000000000000000
:104DF800000000000000806100330033001E000C3A
:104E0800000C001E00330033806100000000000029
:104E180000000000000000008061806180310033E4
:104E28000033001B001B001B000E000E000E001CB0
:104E3800007C007000000000000000000000C07F3F
:104E4800C07F800100030006000C00180030C07FFE
:104E5800C07F0000000000008003800700060006F5
:104E6800000600060006000E001C001C000E0006CE
:104E780000060006000600068007800300060006FC
:104E880000060006000600060006000600060006EA
:104E980000060006000600060006000600060006DA
:104EA8000038003C000C000C000C000C000C000E3C
:104EB80000070007000E000C000C000C000C000C92
:104EC800003C003800000000000000000000000066
:104ED80000008038807F00470000000000000000CC
:104EE80000000000000000000000000000000000BA
:104EF8000102030406070809000000000102030478
:044F08003501000867
:044F0C001101000887
:104F10000B12000094410008F8270000AAAAAAAAD0
:0C4F20000024F40010000000010000005C
:04000005080027E5E3
:00000001FF
